{
  "_format": "hh-sol-artifact-1",
  "contractName": "ERC20Mock",
  "sourceName": "contracts/ERC20Mock.sol",
  "abi": [
    {
      "inputs": [
        {
          "internalType": "string",
          "name": "_name",
          "type": "string"
        },
        {
          "internalType": "string",
          "name": "_symbol",
          "type": "string"
        },
        {
          "internalType": "address",
          "name": "initial",
          "type": "address"
        },
        {
          "internalType": "uint256",
          "name": "supply",
          "type": "uint256"
        }
      ],
      "stateMutability": "nonpayable",
      "type": "constructor"
    },
    {
      "anonymous": false,
      "inputs": [
        {
          "indexed": true,
          "internalType": "address",
          "name": "owner",
          "type": "address"
        },
        {
          "indexed": true,
          "internalType": "address",
          "name": "spender",
          "type": "address"
        },
        {
          "indexed": false,
          "internalType": "uint256",
          "name": "value",
          "type": "uint256"
        }
      ],
      "name": "Approval",
      "type": "event"
    },
    {
      "anonymous": false,
      "inputs": [
        {
          "indexed": true,
          "internalType": "address",
          "name": "from",
          "type": "address"
        },
        {
          "indexed": true,
          "internalType": "address",
          "name": "to",
          "type": "address"
        },
        {
          "indexed": false,
          "internalType": "uint256",
          "name": "value",
          "type": "uint256"
        }
      ],
      "name": "Transfer",
      "type": "event"
    },
    {
      "inputs": [
        {
          "internalType": "address",
          "name": "",
          "type": "address"
        },
        {
          "internalType": "address",
          "name": "",
          "type": "address"
        }
      ],
      "name": "allowance",
      "outputs": [
        {
          "internalType": "uint256",
          "name": "",
          "type": "uint256"
        }
      ],
      "stateMutability": "view",
      "type": "function"
    },
    {
      "inputs": [
        {
          "internalType": "address",
          "name": "spender",
          "type": "address"
        },
        {
          "internalType": "uint256",
          "name": "amount",
          "type": "uint256"
        }
      ],
      "name": "approve",
      "outputs": [
        {
          "internalType": "bool",
          "name": "",
          "type": "bool"
        }
      ],
      "stateMutability": "nonpayable",
      "type": "function"
    },
    {
      "inputs": [
        {
          "internalType": "address",
          "name": "",
          "type": "address"
        }
      ],
      "name": "balanceOf",
      "outputs": [
        {
          "internalType": "uint256",
          "name": "",
          "type": "uint256"
        }
      ],
      "stateMutability": "view",
      "type": "function"
    },
    {
      "inputs": [],
      "name": "decimals",
      "outputs": [
        {
          "internalType": "uint8",
          "name": "",
          "type": "uint8"
        }
      ],
      "stateMutability": "view",
      "type": "function"
    },
    {
      "inputs": [],
      "name": "name",
      "outputs": [
        {
          "internalType": "string",
          "name": "",
          "type": "string"
        }
      ],
      "stateMutability": "view",
      "type": "function"
    },
    {
      "inputs": [],
      "name": "symbol",
      "outputs": [
        {
          "internalType": "string",
          "name": "",
          "type": "string"
        }
      ],
      "stateMutability": "view",
      "type": "function"
    },
    {
      "inputs": [],
      "name": "totalSupply",
      "outputs": [
        {
          "internalType": "uint256",
          "name": "",
          "type": "uint256"
        }
      ],
      "stateMutability": "view",
      "type": "function"
    },
    {
      "inputs": [
        {
          "internalType": "address",
          "name": "to",
          "type": "address"
        },
        {
          "internalType": "uint256",
          "name": "amount",
          "type": "uint256"
        }
      ],
      "name": "transfer",
      "outputs": [
        {
          "internalType": "bool",
          "name": "",
          "type": "bool"
        }
      ],
      "stateMutability": "nonpayable",
      "type": "function"
    },
    {
      "inputs": [
        {
          "internalType": "address",
          "name": "from",
          "type": "address"
        },
        {
          "internalType": "address",
          "name": "to",
          "type": "address"
        },
        {
          "internalType": "uint256",
          "name": "amount",
          "type": "uint256"
        }
      ],
      "name": "transferFrom",
      "outputs": [
        {
          "internalType": "bool",
          "name": "",
          "type": "bool"
        }
      ],
      "stateMutability": "nonpayable",
      "type": "function"
    }
  ],
  "bytecode": "0x60806040526012600260006101000a81548160ff021916908360ff1602179055503480156200002d57600080fd5b5060405162001487380380620014878339818101604052810190620000539190620003a5565b836000908162000064919062000696565b50826001908162000076919062000696565b506200008982826200009360201b60201c565b5050505062000815565b8060036000828254620000a79190620007ac565b9250508190555080600460008473ffffffffffffffffffffffffffffffffffffffff1673ffffffffffffffffffffffffffffffffffffffff1681526020019081526020016000206000828254620000ff9190620007ac565b925050819055508173ffffffffffffffffffffffffffffffffffffffff16600073ffffffffffffffffffffffffffffffffffffffff167fddf252ad1be2c89b69c2b068fc378daa952ba7f163c4a11628f55a4df523b3ef83604051620001669190620007f8565b60405180910390a35050565b6000604051905090565b600080fd5b600080fd5b600080fd5b600080fd5b6000601f19601f8301169050919050565b7f4e487b7100000000000000000000000000000000000000000000000000000000600052604160045260246000fd5b620001db8262000190565b810181811067ffffffffffffffff82111715620001fd57620001fc620001a1565b5b80604052505050565b60006200021262000172565b9050620002208282620001d0565b919050565b600067ffffffffffffffff821115620002435762000242620001a1565b5b6200024e8262000190565b9050602081019050919050565b60005b838110156200027b5780820151818401526020810190506200025e565b60008484015250505050565b60006200029e620002988462000225565b62000206565b905082815260208101848484011115620002bd57620002bc6200018b565b5b620002ca8482856200025b565b509392505050565b600082601f830112620002ea57620002e962000186565b5b8151620002fc84826020860162000287565b91505092915050565b600073ffffffffffffffffffffffffffffffffffffffff82169050919050565b6000620003328262000305565b9050919050565b620003448162000325565b81146200035057600080fd5b50565b600081519050620003648162000339565b92915050565b6000819050919050565b6200037f816200036a565b81146200038b57600080fd5b50565b6000815190506200039f8162000374565b92915050565b60008060008060808587031215620003c257620003c16200017c565b5b600085015167ffffffffffffffff811115620003e357620003e262000181565b5b620003f187828801620002d2565b945050602085015167ffffffffffffffff81111562000415576200041462000181565b5b6200042387828801620002d2565b9350506040620004368782880162000353565b925050606062000449878288016200038e565b91505092959194509250565b600081519050919050565b7f4e487b7100000000000000000000000000000000000000000000000000000000600052602260045260246000fd5b60006002820490506001821680620004a857607f821691505b602082108103620004be57620004bd62000460565b5b50919050565b60008190508160005260206000209050919050565b60006020601f8301049050919050565b600082821b905092915050565b600060088302620005287fffffffffffffffffffffffffffffffffffffffffffffffffffffffffffffffff82620004e9565b620005348683620004e9565b95508019841693508086168417925050509392505050565b6000819050919050565b600062000577620005716200056b846200036a565b6200054c565b6200036a565b9050919050565b6000819050919050565b620005938362000556565b620005ab620005a2826200057e565b848454620004f6565b825550505050565b600090565b620005c2620005b3565b620005cf81848462000588565b505050565b5b81811015620005f757620005eb600082620005b8565b600181019050620005d5565b5050565b601f82111562000646576200061081620004c4565b6200061b84620004d9565b810160208510156200062b578190505b620006436200063a85620004d9565b830182620005d4565b50505b505050565b600082821c905092915050565b60006200066b600019846008026200064b565b1980831691505092915050565b600062000686838362000658565b9150826002028217905092915050565b620006a18262000455565b67ffffffffffffffff811115620006bd57620006bc620001a1565b5b620006c982546200048f565b620006d6828285620005fb565b600060209050601f8311600181146200070e5760008415620006f9578287015190505b62000705858262000678565b86555062000775565b601f1984166200071e86620004c4565b60005b82811015620007485784890151825560018201915060208501945060208101905062000721565b8683101562000768578489015162000764601f89168262000658565b8355505b6001600288020188555050505b505050505050565b7f4e487b7100000000000000000000000000000000000000000000000000000000600052601160045260246000fd5b6000620007b9826200036a565b9150620007c6836200036a565b9250828201905080821115620007e157620007e06200077d565b5b92915050565b620007f2816200036a565b82525050565b60006020820190506200080f6000830184620007e7565b92915050565b610c6280620008256000396000f3fe608060405234801561001057600080fd5b50600436106100935760003560e01c8063313ce56711610066578063313ce5671461013457806370a082311461015257806395d89b4114610182578063a9059cbb146101a0578063dd62ed3e146101d057610093565b806306fdde0314610098578063095ea7b3146100b657806318160ddd146100e657806323b872dd14610104575b600080fd5b6100a0610200565b6040516100ad919061080b565b60405180910390f35b6100d060048036038101906100cb91906108c6565b61028e565b6040516100dd9190610921565b60405180910390f35b6100ee610380565b6040516100fb919061094b565b60405180910390f35b61011e60048036038101906101199190610966565b610386565b60405161012b9190610921565b60405180910390f35b61013c6104ee565b60405161014991906109d5565b60405180910390f35b61016c600480360381019061016791906109f0565b610501565b604051610179919061094b565b60405180910390f35b61018a610519565b604051610197919061080b565b60405180910390f35b6101ba60048036038101906101b591906108c6565b6105a7565b6040516101c79190610921565b60405180910390f35b6101ea60048036038101906101e59190610a1d565b6105be565b6040516101f7919061094b565b60405180910390f35b6000805461020d90610a8c565b80601f016020809104026020016040519081016040528092919081815260200182805461023990610a8c565b80156102865780601f1061025b57610100808354040283529160200191610286565b820191906000526020600020905b81548152906001019060200180831161026957829003601f168201915b505050505081565b600081600560003373ffffffffffffffffffffffffffffffffffffffff1673ffffffffffffffffffffffffffffffffffffffff16815260200190815260200160002060008573ffffffffffffffffffffffffffffffffffffffff1673ffffffffffffffffffffffffffffffffffffffff168152602001908152602001600020819055508273ffffffffffffffffffffffffffffffffffffffff163373ffffffffffffffffffffffffffffffffffffffff167f8c5be1e5ebec7d5bd14f71427d1e84f3dd0314c0f7b2291e5b200ac8c7c3b9258460405161036e919061094b565b60405180910390a36001905092915050565b60035481565b600080600560008673ffffffffffffffffffffffffffffffffffffffff1673ffffffffffffffffffffffffffffffffffffffff16815260200190815260200160002060003373ffffffffffffffffffffffffffffffffffffffff1673ffffffffffffffffffffffffffffffffffffffff1681526020019081526020016000205490508281101561044b576040517f08c379a000000000000000000000000000000000000000000000000000000000815260040161044290610b09565b60405180910390fd5b82816104579190610b58565b600560008773ffffffffffffffffffffffffffffffffffffffff1673ffffffffffffffffffffffffffffffffffffffff16815260200190815260200160002060003373ffffffffffffffffffffffffffffffffffffffff1673ffffffffffffffffffffffffffffffffffffffff168152602001908152602001600020819055506104e28585856105e3565b60019150509392505050565b600260009054906101000a900460ff1681565b60046020528060005260406000206000915090505481565b6001805461052690610a8c565b80601f016020809104026020016040519081016040528092919081815260200182805461055290610a8c565b801561059f5780601f106105745761010080835404028352916020019161059f565b820191906000526020600020905b81548152906001019060200180831161058257829003601f168201915b505050505081565b60006105b43384846105e3565b6001905092915050565b6005602052816000526040600020602052806000526040600020600091509150505481565b80600460008573ffffffffffffffffffffffffffffffffffffffff1673ffffffffffffffffffffffffffffffffffffffff168152602001908152602001600020541015610665576040517f08c379a000000000000000000000000000000000000000000000000000000000815260040161065c90610bd8565b60405180910390fd5b80600460008573ffffffffffffffffffffffffffffffffffffffff1673ffffffffffffffffffffffffffffffffffffffff16815260200190815260200160002060008282546106b49190610b58565b9250508190555080600460008473ffffffffffffffffffffffffffffffffffffffff1673ffffffffffffffffffffffffffffffffffffffff168152602001908152602001600020600082825461070a9190610bf8565b925050819055508173ffffffffffffffffffffffffffffffffffffffff168373ffffffffffffffffffffffffffffffffffffffff167fddf252ad1be2c89b69c2b068fc378daa952ba7f163c4a11628f55a4df523b3ef8360405161076e919061094b565b60405180910390a3505050565b600081519050919050565b600082825260208201905092915050565b60005b838110156107b557808201518184015260208101905061079a565b60008484015250505050565b6000601f19601f8301169050919050565b60006107dd8261077b565b6107e78185610786565b93506107f7818560208601610797565b610800816107c1565b840191505092915050565b6000602082019050818103600083015261082581846107d2565b905092915050565b600080fd5b600073ffffffffffffffffffffffffffffffffffffffff82169050919050565b600061085d82610832565b9050919050565b61086d81610852565b811461087857600080fd5b50565b60008135905061088a81610864565b92915050565b6000819050919050565b6108a381610890565b81146108ae57600080fd5b50565b6000813590506108c08161089a565b92915050565b600080604083850312156108dd576108dc61082d565b5b60006108eb8582860161087b565b92505060206108fc858286016108b1565b9150509250929050565b60008115159050919050565b61091b81610906565b82525050565b60006020820190506109366000830184610912565b92915050565b61094581610890565b82525050565b6000602082019050610960600083018461093c565b92915050565b60008060006060848603121561097f5761097e61082d565b5b600061098d8682870161087b565b935050602061099e8682870161087b565b92505060406109af868287016108b1565b9150509250925092565b600060ff82169050919050565b6109cf816109b9565b82525050565b60006020820190506109ea60008301846109c6565b92915050565b600060208284031215610a0657610a0561082d565b5b6000610a148482850161087b565b91505092915050565b60008060408385031215610a3457610a3361082d565b5b6000610a428582860161087b565b9250506020610a538582860161087b565b9150509250929050565b7f4e487b7100000000000000000000000000000000000000000000000000000000600052602260045260246000fd5b60006002820490506001821680610aa457607f821691505b602082108103610ab757610ab6610a5d565b5b50919050565b7f616c6c6f77616e63650000000000000000000000000000000000000000000000600082015250565b6000610af3600983610786565b9150610afe82610abd565b602082019050919050565b60006020820190508181036000830152610b2281610ae6565b9050919050565b7f4e487b7100000000000000000000000000000000000000000000000000000000600052601160045260246000fd5b6000610b6382610890565b9150610b6e83610890565b9250828203905081811115610b8657610b85610b29565b5b92915050565b7f62616c616e636500000000000000000000000000000000000000000000000000600082015250565b6000610bc2600783610786565b9150610bcd82610b8c565b602082019050919050565b60006020820190508181036000830152610bf181610bb5565b9050919050565b6000610c0382610890565b9150610c0e83610890565b9250828201905080821115610c2657610c25610b29565b5b9291505056fea2646970667358221220577ee7fa9974db2913c14ce246199e700a1b3a319e39322cf5d41e73783f8cdc64736f6c63430008180033",
  "linkReferences": {},
  "deployedLinkReferences": {}
}