{
  "_format": "hh-sol-artifact-1",
  "contractName": "ERC20Mock",
  "sourceName": "contracts/ERC20Mock.sol",
  "abi": [
    {
      "inputs": [
        {
          "internalType": "string",
          "name": "_name",
          "type": "string"
        },
        {
          "internalType": "string",
          "name": "_symbol",
          "type": "string"
        },
        {
          "internalType": "address",
          "name": "initial",
          "type": "address"
        },
        {
          "internalType": "uint256",
          "name": "supply",
          "type": "uint256"
        }
      ],
      "stateMutability": "nonpayable",
      "type": "constructor"
    },
    {
      "anonymous": false,
      "inputs": [
        {
          "indexed": true,
          "internalType": "address",
          "name": "owner",
          "type": "address"
        },
        {
          "indexed": true,
          "internalType": "address",
          "name": "spender",
          "type": "address"
        },
        {
          "indexed": false,
          "internalType": "uint256",
          "name": "value",
          "type": "uint256"
        }
      ],
      "name": "Approval",
      "type": "event"
    },
    {
      "anonymous": false,
      "inputs": [
        {
          "indexed": true,
          "internalType": "address",
          "name": "from",
          "type": "address"
        },
        {
          "indexed": true,
          "internalType": "address",
          "name": "to",
          "type": "address"
        },
        {
          "indexed": false,
          "internalType": "uint256",
          "name": "value",
          "type": "uint256"
        }
      ],
      "name": "Transfer",
      "type": "event"
    },
    {
      "inputs": [
        {
          "internalType": "address",
          "name": "",
          "type": "address"
        },
        {
          "internalType": "address",
          "name": "",
          "type": "address"
        }
      ],
      "name": "allowance",
      "outputs": [
        {
          "internalType": "uint256",
          "name": "",
          "type": "uint256"
        }
      ],
      "stateMutability": "view",
      "type": "function"
    },
    {
      "inputs": [
        {
          "internalType": "address",
          "name": "spender",
          "type": "address"
        },
        {
          "internalType": "uint256",
          "name": "amount",
          "type": "uint256"
        }
      ],
      "name": "approve",
      "outputs": [
        {
          "internalType": "bool",
          "name": "",
          "type": "bool"
        }
      ],
      "stateMutability": "nonpayable",
      "type": "function"
    },
    {
      "inputs": [
        {
          "internalType": "address",
          "name": "",
          "type": "address"
        }
      ],
      "name": "balanceOf",
      "outputs": [
        {
          "internalType": "uint256",
          "name": "",
          "type": "uint256"
        }
      ],
      "stateMutability": "view",
      "type": "function"
    },
    {
      "inputs": [],
      "name": "decimals",
      "outputs": [
        {
          "internalType": "uint8",
          "name": "",
          "type": "uint8"
        }
      ],
      "stateMutability": "view",
      "type": "function"
    },
    {
      "inputs": [
        {
          "internalType": "uint256",
          "name": "amount",
          "type": "uint256"
        }
      ],
      "name": "faucet",
      "outputs": [],
      "stateMutability": "nonpayable",
      "type": "function"
    },
    {
      "inputs": [],
      "name": "name",
      "outputs": [
        {
          "internalType": "string",
          "name": "",
          "type": "string"
        }
      ],
      "stateMutability": "view",
      "type": "function"
    },
    {
      "inputs": [],
      "name": "symbol",
      "outputs": [
        {
          "internalType": "string",
          "name": "",
          "type": "string"
        }
      ],
      "stateMutability": "view",
      "type": "function"
    },
    {
      "inputs": [],
      "name": "totalSupply",
      "outputs": [
        {
          "internalType": "uint256",
          "name": "",
          "type": "uint256"
        }
      ],
      "stateMutability": "view",
      "type": "function"
    },
    {
      "inputs": [
        {
          "internalType": "address",
          "name": "to",
          "type": "address"
        },
        {
          "internalType": "uint256",
          "name": "amount",
          "type": "uint256"
        }
      ],
      "name": "transfer",
      "outputs": [
        {
          "internalType": "bool",
          "name": "",
          "type": "bool"
        }
      ],
      "stateMutability": "nonpayable",
      "type": "function"
    },
    {
      "inputs": [
        {
          "internalType": "address",
          "name": "from",
          "type": "address"
        },
        {
          "internalType": "address",
          "name": "to",
          "type": "address"
        },
        {
          "internalType": "uint256",
          "name": "amount",
          "type": "uint256"
        }
      ],
      "name": "transferFrom",
      "outputs": [
        {
          "internalType": "bool",
          "name": "",
          "type": "bool"
        }
      ],
      "stateMutability": "nonpayable",
      "type": "function"
    }
  ],
  "bytecode": "0x60806040526012600260006101000a81548160ff021916908360ff1602179055503480156200002d57600080fd5b5060405162001670380380620016708339818101604052810190620000539190620003a5565b836000908162000064919062000696565b50826001908162000076919062000696565b506200008982826200009360201b60201c565b5050505062000815565b8060036000828254620000a79190620007ac565b9250508190555080600460008473ffffffffffffffffffffffffffffffffffffffff1673ffffffffffffffffffffffffffffffffffffffff1681526020019081526020016000206000828254620000ff9190620007ac565b925050819055508173ffffffffffffffffffffffffffffffffffffffff16600073ffffffffffffffffffffffffffffffffffffffff167fddf252ad1be2c89b69c2b068fc378daa952ba7f163c4a11628f55a4df523b3ef83604051620001669190620007f8565b60405180910390a35050565b6000604051905090565b600080fd5b600080fd5b600080fd5b600080fd5b6000601f19601f8301169050919050565b7f4e487b7100000000000000000000000000000000000000000000000000000000600052604160045260246000fd5b620001db8262000190565b810181811067ffffffffffffffff82111715620001fd57620001fc620001a1565b5b80604052505050565b60006200021262000172565b9050620002208282620001d0565b919050565b600067ffffffffffffffff821115620002435762000242620001a1565b5b6200024e8262000190565b9050602081019050919050565b60005b838110156200027b5780820151818401526020810190506200025e565b60008484015250505050565b60006200029e620002988462000225565b62000206565b905082815260208101848484011115620002bd57620002bc6200018b565b5b620002ca8482856200025b565b509392505050565b600082601f830112620002ea57620002e962000186565b5b8151620002fc84826020860162000287565b91505092915050565b600073ffffffffffffffffffffffffffffffffffffffff82169050919050565b6000620003328262000305565b9050919050565b620003448162000325565b81146200035057600080fd5b50565b600081519050620003648162000339565b92915050565b6000819050919050565b6200037f816200036a565b81146200038b57600080fd5b50565b6000815190506200039f8162000374565b92915050565b60008060008060808587031215620003c257620003c16200017c565b5b600085015167ffffffffffffffff811115620003e357620003e262000181565b5b620003f187828801620002d2565b945050602085015167ffffffffffffffff81111562000415576200041462000181565b5b6200042387828801620002d2565b9350506040620004368782880162000353565b925050606062000449878288016200038e565b91505092959194509250565b600081519050919050565b7f4e487b7100000000000000000000000000000000000000000000000000000000600052602260045260246000fd5b60006002820490506001821680620004a857607f821691505b602082108103620004be57620004bd62000460565b5b50919050565b60008190508160005260206000209050919050565b60006020601f8301049050919050565b600082821b905092915050565b600060088302620005287fffffffffffffffffffffffffffffffffffffffffffffffffffffffffffffffff82620004e9565b620005348683620004e9565b95508019841693508086168417925050509392505050565b6000819050919050565b600062000577620005716200056b846200036a565b6200054c565b6200036a565b9050919050565b6000819050919050565b620005938362000556565b620005ab620005a2826200057e565b848454620004f6565b825550505050565b600090565b620005c2620005b3565b620005cf81848462000588565b505050565b5b81811015620005f757620005eb600082620005b8565b600181019050620005d5565b5050565b601f82111562000646576200061081620004c4565b6200061b84620004d9565b810160208510156200062b578190505b620006436200063a85620004d9565b830182620005d4565b50505b505050565b600082821c905092915050565b60006200066b600019846008026200064b565b1980831691505092915050565b600062000686838362000658565b9150826002028217905092915050565b620006a18262000455565b67ffffffffffffffff811115620006bd57620006bc620001a1565b5b620006c982546200048f565b620006d6828285620005fb565b600060209050601f8311600181146200070e5760008415620006f9578287015190505b62000705858262000678565b86555062000775565b601f1984166200071e86620004c4565b60005b82811015620007485784890151825560018201915060208501945060208101905062000721565b8683101562000768578489015162000764601f89168262000658565b8355505b6001600288020188555050505b505050505050565b7f4e487b7100000000000000000000000000000000000000000000000000000000600052601160045260246000fd5b6000620007b9826200036a565b9150620007c6836200036a565b9250828201905080821115620007e157620007e06200077d565b5b92915050565b620007f2816200036a565b82525050565b60006020820190506200080f6000830184620007e7565b92915050565b610e4b80620008256000396000f3fe608060405234801561001057600080fd5b506004361061009e5760003560e01c80635791589711610066578063579158971461015d57806370a082311461017957806395d89b41146101a9578063a9059cbb146101c7578063dd62ed3e146101f75761009e565b806306fdde03146100a3578063095ea7b3146100c157806318160ddd146100f157806323b872dd1461010f578063313ce5671461013f575b600080fd5b6100ab610227565b6040516100b8919061095b565b60405180910390f35b6100db60048036038101906100d69190610a16565b6102b5565b6040516100e89190610a71565b60405180910390f35b6100f96103a7565b6040516101069190610a9b565b60405180910390f35b61012960048036038101906101249190610ab6565b6103ad565b6040516101369190610a71565b60405180910390f35b610147610515565b6040516101549190610b25565b60405180910390f35b61017760048036038101906101729190610b40565b610528565b005b610193600480360381019061018e9190610b6d565b610578565b6040516101a09190610a9b565b60405180910390f35b6101b1610590565b6040516101be919061095b565b60405180910390f35b6101e160048036038101906101dc9190610a16565b61061e565b6040516101ee9190610a71565b60405180910390f35b610211600480360381019061020c9190610b9a565b610635565b60405161021e9190610a9b565b60405180910390f35b6000805461023490610c09565b80601f016020809104026020016040519081016040528092919081815260200182805461026090610c09565b80156102ad5780601f10610282576101008083540402835291602001916102ad565b820191906000526020600020905b81548152906001019060200180831161029057829003601f168201915b505050505081565b600081600560003373ffffffffffffffffffffffffffffffffffffffff1673ffffffffffffffffffffffffffffffffffffffff16815260200190815260200160002060008573ffffffffffffffffffffffffffffffffffffffff1673ffffffffffffffffffffffffffffffffffffffff168152602001908152602001600020819055508273ffffffffffffffffffffffffffffffffffffffff163373ffffffffffffffffffffffffffffffffffffffff167f8c5be1e5ebec7d5bd14f71427d1e84f3dd0314c0f7b2291e5b200ac8c7c3b925846040516103959190610a9b565b60405180910390a36001905092915050565b60035481565b600080600560008673ffffffffffffffffffffffffffffffffffffffff1673ffffffffffffffffffffffffffffffffffffffff16815260200190815260200160002060003373ffffffffffffffffffffffffffffffffffffffff1673ffffffffffffffffffffffffffffffffffffffff16815260200190815260200160002054905082811015610472576040517f08c379a000000000000000000000000000000000000000000000000000000000815260040161046990610c86565b60405180910390fd5b828161047e9190610cd5565b600560008773ffffffffffffffffffffffffffffffffffffffff1673ffffffffffffffffffffffffffffffffffffffff16815260200190815260200160002060003373ffffffffffffffffffffffffffffffffffffffff1673ffffffffffffffffffffffffffffffffffffffff1681526020019081526020016000208190555061050985858561065a565b60019150509392505050565b600260009054906101000a900460ff1681565b6000811161056b576040517f08c379a000000000000000000000000000000000000000000000000000000000815260040161056290610d55565b60405180910390fd5b61057533826107f2565b50565b60046020528060005260406000206000915090505481565b6001805461059d90610c09565b80601f01602080910402602001604051908101604052809291908181526020018280546105c990610c09565b80156106165780601f106105eb57610100808354040283529160200191610616565b820191906000526020600020905b8154815290600101906020018083116105f957829003601f168201915b505050505081565b600061062b33848461065a565b6001905092915050565b6005602052816000526040600020602052806000526040600020600091509150505481565b80600460008573ffffffffffffffffffffffffffffffffffffffff1673ffffffffffffffffffffffffffffffffffffffff1681526020019081526020016000205410156106dc576040517f08c379a00000000000000000000000000000000000000000000000000000000081526004016106d390610dc1565b60405180910390fd5b80600460008573ffffffffffffffffffffffffffffffffffffffff1673ffffffffffffffffffffffffffffffffffffffff168152602001908152602001600020600082825461072b9190610cd5565b9250508190555080600460008473ffffffffffffffffffffffffffffffffffffffff1673ffffffffffffffffffffffffffffffffffffffff16815260200190815260200160002060008282546107819190610de1565b925050819055508173ffffffffffffffffffffffffffffffffffffffff168373ffffffffffffffffffffffffffffffffffffffff167fddf252ad1be2c89b69c2b068fc378daa952ba7f163c4a11628f55a4df523b3ef836040516107e59190610a9b565b60405180910390a3505050565b80600360008282546108049190610de1565b9250508190555080600460008473ffffffffffffffffffffffffffffffffffffffff1673ffffffffffffffffffffffffffffffffffffffff168152602001908152602001600020600082825461085a9190610de1565b925050819055508173ffffffffffffffffffffffffffffffffffffffff16600073ffffffffffffffffffffffffffffffffffffffff167fddf252ad1be2c89b69c2b068fc378daa952ba7f163c4a11628f55a4df523b3ef836040516108bf9190610a9b565b60405180910390a35050565b600081519050919050565b600082825260208201905092915050565b60005b838110156109055780820151818401526020810190506108ea565b60008484015250505050565b6000601f19601f8301169050919050565b600061092d826108cb565b61093781856108d6565b93506109478185602086016108e7565b61095081610911565b840191505092915050565b600060208201905081810360008301526109758184610922565b905092915050565b600080fd5b600073ffffffffffffffffffffffffffffffffffffffff82169050919050565b60006109ad82610982565b9050919050565b6109bd816109a2565b81146109c857600080fd5b50565b6000813590506109da816109b4565b92915050565b6000819050919050565b6109f3816109e0565b81146109fe57600080fd5b50565b600081359050610a10816109ea565b92915050565b60008060408385031215610a2d57610a2c61097d565b5b6000610a3b858286016109cb565b9250506020610a4c85828601610a01565b9150509250929050565b60008115159050919050565b610a6b81610a56565b82525050565b6000602082019050610a866000830184610a62565b92915050565b610a95816109e0565b82525050565b6000602082019050610ab06000830184610a8c565b92915050565b600080600060608486031215610acf57610ace61097d565b5b6000610add868287016109cb565b9350506020610aee868287016109cb565b9250506040610aff86828701610a01565b9150509250925092565b600060ff82169050919050565b610b1f81610b09565b82525050565b6000602082019050610b3a6000830184610b16565b92915050565b600060208284031215610b5657610b5561097d565b5b6000610b6484828501610a01565b91505092915050565b600060208284031215610b8357610b8261097d565b5b6000610b91848285016109cb565b91505092915050565b60008060408385031215610bb157610bb061097d565b5b6000610bbf858286016109cb565b9250506020610bd0858286016109cb565b9150509250929050565b7f4e487b7100000000000000000000000000000000000000000000000000000000600052602260045260246000fd5b60006002820490506001821680610c2157607f821691505b602082108103610c3457610c33610bda565b5b50919050565b7f616c6c6f77616e63650000000000000000000000000000000000000000000000600082015250565b6000610c706009836108d6565b9150610c7b82610c3a565b602082019050919050565b60006020820190508181036000830152610c9f81610c63565b9050919050565b7f4e487b7100000000000000000000000000000000000000000000000000000000600052601160045260246000fd5b6000610ce0826109e0565b9150610ceb836109e0565b9250828203905081811115610d0357610d02610ca6565b5b92915050565b7f414d4f554e540000000000000000000000000000000000000000000000000000600082015250565b6000610d3f6006836108d6565b9150610d4a82610d09565b602082019050919050565b60006020820190508181036000830152610d6e81610d32565b9050919050565b7f62616c616e636500000000000000000000000000000000000000000000000000600082015250565b6000610dab6007836108d6565b9150610db682610d75565b602082019050919050565b60006020820190508181036000830152610dda81610d9e565b9050919050565b6000610dec826109e0565b9150610df7836109e0565b9250828201905080821115610e0f57610e0e610ca6565b5b9291505056fea26469706673582212201a818909fe24cbb93ab35da8228f811134a9e7800d3a53d3895d1bf4370a9e1464736f6c63430008180033",
  "linkReferences": {},
  "deployedLinkReferences": {}
}