{
  "_format": "hh-sol-artifact-1",
  "contractName": "P2PMarketplace",
  "sourceName": "contracts/P2PMarketplace.sol",
  "abi": [
    {
      "inputs": [
        {
          "internalType": "address",
          "name": "_priceFeed",
          "type": "address"
        }
      ],
      "stateMutability": "nonpayable",
      "type": "constructor"
    },
    {
      "inputs": [],
      "name": "InsufficientAmount",
      "type": "error"
    },
    {
      "inputs": [],
      "name": "InsufficientValue",
      "type": "error"
    },
    {
      "inputs": [],
      "name": "InvalidStatus",
      "type": "error"
    },
    {
      "inputs": [],
      "name": "NotSeller",
      "type": "error"
    },
    {
      "inputs": [],
      "name": "PriceNotPositive",
      "type": "error"
    },
    {
      "inputs": [],
      "name": "StaleOracle",
      "type": "error"
    },
    {
      "anonymous": false,
      "inputs": [
        {
          "indexed": true,
          "internalType": "uint256",
          "name": "listingId",
          "type": "uint256"
        },
        {
          "indexed": false,
          "internalType": "uint256",
          "name": "refundedAmount",
          "type": "uint256"
        }
      ],
      "name": "ListingCancelled",
      "type": "event"
    },
    {
      "anonymous": false,
      "inputs": [
        {
          "indexed": true,
          "internalType": "uint256",
          "name": "listingId",
          "type": "uint256"
        },
        {
          "indexed": true,
          "internalType": "address",
          "name": "seller",
          "type": "address"
        },
        {
          "indexed": false,
          "internalType": "address",
          "name": "token",
          "type": "address"
        },
        {
          "indexed": false,
          "internalType": "address",
          "name": "paymentToken",
          "type": "address"
        },
        {
          "indexed": false,
          "internalType": "uint256",
          "name": "amount",
          "type": "uint256"
        },
        {
          "indexed": false,
          "internalType": "uint256",
          "name": "pricePerUnit",
          "type": "uint256"
        }
      ],
      "name": "ListingCreated",
      "type": "event"
    },
    {
      "anonymous": false,
      "inputs": [
        {
          "indexed": true,
          "internalType": "uint256",
          "name": "listingId",
          "type": "uint256"
        },
        {
          "indexed": false,
          "internalType": "uint256",
          "name": "remainingAmount",
          "type": "uint256"
        },
        {
          "indexed": false,
          "internalType": "enum P2PMarketplace.ListingStatus",
          "name": "status",
          "type": "uint8"
        }
      ],
      "name": "ListingUpdated",
      "type": "event"
    },
    {
      "anonymous": false,
      "inputs": [
        {
          "indexed": false,
          "internalType": "uint256",
          "name": "maxStaleTime",
          "type": "uint256"
        }
      ],
      "name": "MaxStaleUpdated",
      "type": "event"
    },
    {
      "anonymous": false,
      "inputs": [
        {
          "indexed": true,
          "internalType": "address",
          "name": "feed",
          "type": "address"
        }
      ],
      "name": "PriceFeedUpdated",
      "type": "event"
    },
    {
      "anonymous": false,
      "inputs": [
        {
          "indexed": true,
          "internalType": "uint256",
          "name": "tradeId",
          "type": "uint256"
        },
        {
          "indexed": true,
          "internalType": "uint256",
          "name": "listingId",
          "type": "uint256"
        },
        {
          "indexed": true,
          "internalType": "address",
          "name": "buyer",
          "type": "address"
        },
        {
          "indexed": false,
          "internalType": "uint256",
          "name": "amount",
          "type": "uint256"
        },
        {
          "indexed": false,
          "internalType": "uint256",
          "name": "totalPaid",
          "type": "uint256"
        },
        {
          "indexed": false,
          "internalType": "bool",
          "name": "usedOraclePrice",
          "type": "bool"
        }
      ],
      "name": "TradeExecuted",
      "type": "event"
    },
    {
      "inputs": [
        {
          "internalType": "uint256",
          "name": "listingId",
          "type": "uint256"
        },
        {
          "internalType": "uint256",
          "name": "amount",
          "type": "uint256"
        }
      ],
      "name": "buy",
      "outputs": [
        {
          "internalType": "uint256",
          "name": "",
          "type": "uint256"
        }
      ],
      "stateMutability": "payable",
      "type": "function"
    },
    {
      "inputs": [
        {
          "internalType": "uint256",
          "name": "listingId",
          "type": "uint256"
        },
        {
          "internalType": "uint256",
          "name": "amount",
          "type": "uint256"
        }
      ],
      "name": "buyAtMarket",
      "outputs": [
        {
          "internalType": "uint256",
          "name": "",
          "type": "uint256"
        }
      ],
      "stateMutability": "payable",
      "type": "function"
    },
    {
      "inputs": [
        {
          "internalType": "uint256",
          "name": "listingId",
          "type": "uint256"
        },
        {
          "internalType": "uint256",
          "name": "amount",
          "type": "uint256"
        },
        {
          "internalType": "address",
          "name": "recipient",
          "type": "address"
        }
      ],
      "name": "buyFor",
      "outputs": [
        {
          "internalType": "uint256",
          "name": "",
          "type": "uint256"
        }
      ],
      "stateMutability": "payable",
      "type": "function"
    },
    {
      "inputs": [
        {
          "internalType": "uint256",
          "name": "listingId",
          "type": "uint256"
        }
      ],
      "name": "cancelListing",
      "outputs": [],
      "stateMutability": "nonpayable",
      "type": "function"
    },
    {
      "inputs": [
        {
          "internalType": "address",
          "name": "token",
          "type": "address"
        },
        {
          "internalType": "address",
          "name": "paymentToken",
          "type": "address"
        },
        {
          "internalType": "uint256",
          "name": "amount",
          "type": "uint256"
        },
        {
          "internalType": "uint256",
          "name": "pricePerUnit",
          "type": "uint256"
        }
      ],
      "name": "createListing",
      "outputs": [
        {
          "internalType": "uint256",
          "name": "",
          "type": "uint256"
        }
      ],
      "stateMutability": "nonpayable",
      "type": "function"
    },
    {
      "inputs": [
        {
          "internalType": "uint256",
          "name": "listingId",
          "type": "uint256"
        },
        {
          "internalType": "uint256",
          "name": "amount",
          "type": "uint256"
        },
        {
          "internalType": "address",
          "name": "recipient",
          "type": "address"
        }
      ],
      "name": "fillListingForFiat",
      "outputs": [
        {
          "internalType": "uint256",
          "name": "tradeId",
          "type": "uint256"
        }
      ],
      "stateMutability": "nonpayable",
      "type": "function"
    },
    {
      "inputs": [
        {
          "internalType": "uint256",
          "name": "listingId",
          "type": "uint256"
        }
      ],
      "name": "getListing",
      "outputs": [
        {
          "components": [
            {
              "internalType": "address",
              "name": "seller",
              "type": "address"
            },
            {
              "internalType": "address",
              "name": "token",
              "type": "address"
            },
            {
              "internalType": "address",
              "name": "paymentToken",
              "type": "address"
            },
            {
              "internalType": "uint256",
              "name": "remainingAmount",
              "type": "uint256"
            },
            {
              "internalType": "uint256",
              "name": "pricePerUnit",
              "type": "uint256"
            },
            {
              "internalType": "enum P2PMarketplace.ListingStatus",
              "name": "status",
              "type": "uint8"
            },
            {
              "internalType": "uint256",
              "name": "createdAt",
              "type": "uint256"
            }
          ],
          "internalType": "struct P2PMarketplace.Listing",
          "name": "",
          "type": "tuple"
        }
      ],
      "stateMutability": "view",
      "type": "function"
    },
    {
      "inputs": [
        {
          "internalType": "uint256",
          "name": "tradeId",
          "type": "uint256"
        }
      ],
      "name": "getTrade",
      "outputs": [
        {
          "components": [
            {
              "internalType": "address",
              "name": "buyer",
              "type": "address"
            },
            {
              "internalType": "uint256",
              "name": "listingId",
              "type": "uint256"
            },
            {
              "internalType": "uint256",
              "name": "amount",
              "type": "uint256"
            },
            {
              "internalType": "uint256",
              "name": "totalPaid",
              "type": "uint256"
            },
            {
              "internalType": "bool",
              "name": "usedOraclePrice",
              "type": "bool"
            },
            {
              "internalType": "uint256",
              "name": "timestamp",
              "type": "uint256"
            }
          ],
          "internalType": "struct P2PMarketplace.Trade",
          "name": "",
          "type": "tuple"
        }
      ],
      "stateMutability": "view",
      "type": "function"
    },
    {
      "inputs": [
        {
          "internalType": "uint256",
          "name": "",
          "type": "uint256"
        }
      ],
      "name": "listings",
      "outputs": [
        {
          "internalType": "address",
          "name": "seller",
          "type": "address"
        },
        {
          "internalType": "address",
          "name": "token",
          "type": "address"
        },
        {
          "internalType": "address",
          "name": "paymentToken",
          "type": "address"
        },
        {
          "internalType": "uint256",
          "name": "remainingAmount",
          "type": "uint256"
        },
        {
          "internalType": "uint256",
          "name": "pricePerUnit",
          "type": "uint256"
        },
        {
          "internalType": "enum P2PMarketplace.ListingStatus",
          "name": "status",
          "type": "uint8"
        },
        {
          "internalType": "uint256",
          "name": "createdAt",
          "type": "uint256"
        }
      ],
      "stateMutability": "view",
      "type": "function"
    },
    {
      "inputs": [],
      "name": "maxStaleTime",
      "outputs": [
        {
          "internalType": "uint256",
          "name": "",
          "type": "uint256"
        }
      ],
      "stateMutability": "view",
      "type": "function"
    },
    {
      "inputs": [],
      "name": "nextListingId",
      "outputs": [
        {
          "internalType": "uint256",
          "name": "",
          "type": "uint256"
        }
      ],
      "stateMutability": "view",
      "type": "function"
    },
    {
      "inputs": [],
      "name": "nextTradeId",
      "outputs": [
        {
          "internalType": "uint256",
          "name": "",
          "type": "uint256"
        }
      ],
      "stateMutability": "view",
      "type": "function"
    },
    {
      "inputs": [],
      "name": "owner",
      "outputs": [
        {
          "internalType": "address",
          "name": "",
          "type": "address"
        }
      ],
      "stateMutability": "view",
      "type": "function"
    },
    {
      "inputs": [],
      "name": "priceFeed",
      "outputs": [
        {
          "internalType": "contract IAggregator",
          "name": "",
          "type": "address"
        }
      ],
      "stateMutability": "view",
      "type": "function"
    },
    {
      "inputs": [
        {
          "internalType": "uint256",
          "name": "_seconds",
          "type": "uint256"
        }
      ],
      "name": "setMaxStaleTime",
      "outputs": [],
      "stateMutability": "nonpayable",
      "type": "function"
    },
    {
      "inputs": [
        {
          "internalType": "address",
          "name": "_priceFeed",
          "type": "address"
        }
      ],
      "name": "setPriceFeed",
      "outputs": [],
      "stateMutability": "nonpayable",
      "type": "function"
    },
    {
      "inputs": [
        {
          "internalType": "uint256",
          "name": "",
          "type": "uint256"
        }
      ],
      "name": "trades",
      "outputs": [
        {
          "internalType": "address",
          "name": "buyer",
          "type": "address"
        },
        {
          "internalType": "uint256",
          "name": "listingId",
          "type": "uint256"
        },
        {
          "internalType": "uint256",
          "name": "amount",
          "type": "uint256"
        },
        {
          "internalType": "uint256",
          "name": "totalPaid",
          "type": "uint256"
        },
        {
          "internalType": "bool",
          "name": "usedOraclePrice",
          "type": "bool"
        },
        {
          "internalType": "uint256",
          "name": "timestamp",
          "type": "uint256"
        }
      ],
      "stateMutability": "view",
      "type": "function"
    }
  ],
  "bytecode": "0x60806040526001805560016002556107086006553480156200002057600080fd5b506040516200337238038062003372833981810160405281019062000046919062000138565b336000806101000a81548173ffffffffffffffffffffffffffffffffffffffff021916908373ffffffffffffffffffffffffffffffffffffffff16021790555080600560006101000a81548173ffffffffffffffffffffffffffffffffffffffff021916908373ffffffffffffffffffffffffffffffffffffffff160217905550506200016a565b600080fd5b600073ffffffffffffffffffffffffffffffffffffffff82169050919050565b60006200010082620000d3565b9050919050565b6200011281620000f3565b81146200011e57600080fd5b50565b600081519050620001328162000107565b92915050565b600060208284031215620001515762000150620000ce565b5b6000620001618482850162000121565b91505092915050565b6131f8806200017a6000396000f3fe6080604052600436106100fe5760003560e01c8063741bef1a11610095578063aaccf1ec11610064578063aaccf1ec14610353578063bfef0bc21461037e578063d6febde8146103ae578063de74e57b146103de578063e124386e14610421576100fe565b8063741bef1a146102a257806378128609146102cd578063813ad083146102fd5780638da5cb5b14610328576100fe565b8063305a67a8116100d1578063305a67a8146101ea5780635a5e6a8a14610213578063619a55e81461023c578063724e78da14610279576100fe565b80630f27668614610103578063107a274a1461012e5780631e6c598e1461016b5780632db25e05146101ad575b600080fd5b34801561010f57600080fd5b5061011861045e565b60405161012591906122fa565b60405180910390f35b34801561013a57600080fd5b5061015560048036038101906101509190612346565b610464565b60405161016291906124c8565b60405180910390f35b34801561017757600080fd5b50610192600480360381019061018d9190612346565b6105ec565b6040516101a49695949392919061250d565b60405180910390f35b3480156101b957600080fd5b506101d460048036038101906101cf9190612346565b610655565b6040516101e191906125f8565b60405180910390f35b3480156101f657600080fd5b50610211600480360381019061020c9190612346565b61071b565b005b34801561021f57600080fd5b5061023a60048036038101906102359190612346565b610ad8565b005b34801561024857600080fd5b50610263600480360381019061025e919061263f565b610ba7565b60405161027091906122fa565b60405180910390f35b34801561028557600080fd5b506102a0600480360381019061029b91906126a6565b610fb1565b005b3480156102ae57600080fd5b506102b76110c6565b6040516102c49190612732565b60405180910390f35b6102e760048036038101906102e2919061274d565b6110ec565b6040516102f491906122fa565b60405180910390f35b34801561030957600080fd5b5061031261118a565b60405161031f91906122fa565b60405180910390f35b34801561033457600080fd5b5061033d611190565b60405161034a91906127a0565b60405180910390f35b34801561035f57600080fd5b506103686111b4565b60405161037591906122fa565b60405180910390f35b610398600480360381019061039391906127bb565b6111ba565b6040516103a591906122fa565b60405180910390f35b6103c860048036038101906103c391906127bb565b611257565b6040516103d591906122fa565b60405180910390f35b3480156103ea57600080fd5b5061040560048036038101906104009190612346565b6112f4565b604051610418979695949392919061280a565b60405180910390f35b34801561042d57600080fd5b506104486004803603810190610443919061274d565b6113a3565b60405161045591906122fa565b60405180910390f35b60065481565b61046c612202565b600360008381526020019081526020016000206040518060e00160405290816000820160009054906101000a900473ffffffffffffffffffffffffffffffffffffffff1673ffffffffffffffffffffffffffffffffffffffff1673ffffffffffffffffffffffffffffffffffffffff1681526020016001820160009054906101000a900473ffffffffffffffffffffffffffffffffffffffff1673ffffffffffffffffffffffffffffffffffffffff1673ffffffffffffffffffffffffffffffffffffffff1681526020016002820160009054906101000a900473ffffffffffffffffffffffffffffffffffffffff1673ffffffffffffffffffffffffffffffffffffffff1673ffffffffffffffffffffffffffffffffffffffff16815260200160038201548152602001600482015481526020016005820160009054906101000a900460ff1660038111156105c5576105c46123c3565b5b60038111156105d7576105d66123c3565b5b81526020016006820154815250509050919050565b60046020528060005260406000206000915090508060000160009054906101000a900473ffffffffffffffffffffffffffffffffffffffff16908060010154908060020154908060030154908060040160009054906101000a900460ff16908060050154905086565b61065d612293565b600460008381526020019081526020016000206040518060c00160405290816000820160009054906101000a900473ffffffffffffffffffffffffffffffffffffffff1673ffffffffffffffffffffffffffffffffffffffff1673ffffffffffffffffffffffffffffffffffffffff1681526020016001820154815260200160028201548152602001600382015481526020016004820160009054906101000a900460ff161515151581526020016005820154815250509050919050565b600760009054906101000a900460ff161561076b576040517f08c379a0000000000000000000000000000000000000000000000000000000008152600401610762906128d6565b60405180910390fd5b6001600760006101000a81548160ff02191690831515021790555060006003600083815260200190815260200160002090503373ffffffffffffffffffffffffffffffffffffffff168160000160009054906101000a900473ffffffffffffffffffffffffffffffffffffffff1673ffffffffffffffffffffffffffffffffffffffff1614158015610849575060008054906101000a900473ffffffffffffffffffffffffffffffffffffffff1673ffffffffffffffffffffffffffffffffffffffff163373ffffffffffffffffffffffffffffffffffffffff1614155b15610880576040517f5ec8235100000000000000000000000000000000000000000000000000000000815260040160405180910390fd5b60016003811115610894576108936123c3565b5b8160050160009054906101000a900460ff1660038111156108b8576108b76123c3565b5b146108ef576040517ff525e32000000000000000000000000000000000000000000000000000000000815260040160405180910390fd5b60038160050160006101000a81548160ff02191690836003811115610917576109166123c3565b5b0217905550600081600301549050600082600301819055508160010160009054906101000a900473ffffffffffffffffffffffffffffffffffffffff1673ffffffffffffffffffffffffffffffffffffffff1663a9059cbb8360000160009054906101000a900473ffffffffffffffffffffffffffffffffffffffff16836040518363ffffffff1660e01b81526004016109b29291906128f6565b6020604051808303816000875af11580156109d1573d6000803e3d6000fd5b505050506040513d601f19601f820116820180604052508101906109f5919061294b565b610a34576040517f08c379a0000000000000000000000000000000000000000000000000000000008152600401610a2b906129c4565b60405180910390fd5b827fafd0a85a3f09cebbc7d9fcde08e8a7d0ebb0aa7d768a030915c3816a053d3c7a82604051610a6491906122fa565b60405180910390a2827f14259b171a30f9d4473d657bac43fe7f95888aa702010a525446cd328e2eb5cb60008460050160009054906101000a900460ff16604051610ab0929190612a1f565b60405180910390a250506000600760006101000a81548160ff02191690831515021790555050565b60008054906101000a900473ffffffffffffffffffffffffffffffffffffffff1673ffffffffffffffffffffffffffffffffffffffff163373ffffffffffffffffffffffffffffffffffffffff1614610b66576040517f08c379a0000000000000000000000000000000000000000000000000000000008152600401610b5d90612a94565b60405180910390fd5b806006819055507f4838e049548a81c133129ea2fb44509b03242308ae3b9719f81fd9297f00208581604051610b9c91906122fa565b60405180910390a150565b6000600760009054906101000a900460ff1615610bf9576040517f08c379a0000000000000000000000000000000000000000000000000000000008152600401610bf0906128d6565b60405180910390fd5b6001600760006101000a81548160ff02191690831515021790555060008311610c57576040517f08c379a0000000000000000000000000000000000000000000000000000000008152600401610c4e90612b00565b60405180910390fd5b60008211610c9a576040517f08c379a0000000000000000000000000000000000000000000000000000000008152600401610c9190612b6c565b60405180910390fd5b8473ffffffffffffffffffffffffffffffffffffffff166323b872dd3330866040518463ffffffff1660e01b8152600401610cd793929190612b8c565b6020604051808303816000875af1158015610cf6573d6000803e3d6000fd5b505050506040513d601f19601f82011682018060405250810190610d1a919061294b565b610d59576040517f08c379a0000000000000000000000000000000000000000000000000000000008152600401610d5090612c0f565b60405180910390fd5b600060016000815480929190610d6e90612c5e565b9190505590506040518060e001604052803373ffffffffffffffffffffffffffffffffffffffff1681526020018773ffffffffffffffffffffffffffffffffffffffff1681526020018673ffffffffffffffffffffffffffffffffffffffff16815260200185815260200184815260200160016003811115610df357610df26123c3565b5b8152602001428152506003600083815260200190815260200160002060008201518160000160006101000a81548173ffffffffffffffffffffffffffffffffffffffff021916908373ffffffffffffffffffffffffffffffffffffffff16021790555060208201518160010160006101000a81548173ffffffffffffffffffffffffffffffffffffffff021916908373ffffffffffffffffffffffffffffffffffffffff16021790555060408201518160020160006101000a81548173ffffffffffffffffffffffffffffffffffffffff021916908373ffffffffffffffffffffffffffffffffffffffff160217905550606082015181600301556080820151816004015560a08201518160050160006101000a81548160ff02191690836003811115610f2357610f226123c3565b5b021790555060c082015181600601559050503373ffffffffffffffffffffffffffffffffffffffff16817f8eb00fec29bf9fc68086a69e6759c52135427dc0044397ff3777b349124a1e4688888888604051610f829493929190612ca6565b60405180910390a3809150506000600760006101000a81548160ff021916908315150217905550949350505050565b60008054906101000a900473ffffffffffffffffffffffffffffffffffffffff1673ffffffffffffffffffffffffffffffffffffffff163373ffffffffffffffffffffffffffffffffffffffff161461103f576040517f08c379a000000000000000000000000000000000000000000000000000000000815260040161103690612a94565b60405180910390fd5b80600560006101000a81548173ffffffffffffffffffffffffffffffffffffffff021916908373ffffffffffffffffffffffffffffffffffffffff1602179055508073ffffffffffffffffffffffffffffffffffffffff167fe5b20b8497e4f3e2435ef9c20e2e26b47497ee13745ce1c681ad6640653119e660405160405180910390a250565b600560009054906101000a900473ffffffffffffffffffffffffffffffffffffffff1681565b6000600760009054906101000a900460ff161561113e576040517f08c379a0000000000000000000000000000000000000000000000000000000008152600401611135906128d6565b60405180910390fd5b6001600760006101000a81548160ff02191690831515021790555061116684846000856118a7565b90506000600760006101000a81548160ff0219169083151502179055509392505050565b60025481565b60008054906101000a900473ffffffffffffffffffffffffffffffffffffffff1681565b60015481565b6000600760009054906101000a900460ff161561120c576040517f08c379a0000000000000000000000000000000000000000000000000000000008152600401611203906128d6565b60405180910390fd5b6001600760006101000a81548160ff02191690831515021790555061123483836001336118a7565b90506000600760006101000a81548160ff02191690831515021790555092915050565b6000600760009054906101000a900460ff16156112a9576040517f08c379a00000000000000000000000000000000000000000000000000000000081526004016112a0906128d6565b60405180910390fd5b6001600760006101000a81548160ff0219169083151502179055506112d183836000336118a7565b90506000600760006101000a81548160ff02191690831515021790555092915050565b60036020528060005260406000206000915090508060000160009054906101000a900473ffffffffffffffffffffffffffffffffffffffff16908060010160009054906101000a900473ffffffffffffffffffffffffffffffffffffffff16908060020160009054906101000a900473ffffffffffffffffffffffffffffffffffffffff16908060030154908060040154908060050160009054906101000a900460ff16908060060154905087565b6000600760009054906101000a900460ff16156113f5576040517f08c379a00000000000000000000000000000000000000000000000000000000081526004016113ec906128d6565b60405180910390fd5b6001600760006101000a81548160ff02191690831515021790555060008054906101000a900473ffffffffffffffffffffffffffffffffffffffff1673ffffffffffffffffffffffffffffffffffffffff163373ffffffffffffffffffffffffffffffffffffffff161461149e576040517f08c379a000000000000000000000000000000000000000000000000000000000815260040161149590612a94565b60405180910390fd5b600083116114e1576040517f08c379a00000000000000000000000000000000000000000000000000000000081526004016114d890612b00565b60405180910390fd5b60006003600086815260200190815260200160002090506001600381111561150c5761150b6123c3565b5b8160050160009054906101000a900460ff1660038111156115305761152f6123c3565b5b14611567576040517ff525e32000000000000000000000000000000000000000000000000000000000815260040160405180910390fd5b80600301548411156115a5576040517f5945ea5600000000000000000000000000000000000000000000000000000000815260040160405180910390fd5b8060010160009054906101000a900473ffffffffffffffffffffffffffffffffffffffff1673ffffffffffffffffffffffffffffffffffffffff1663a9059cbb84866040518363ffffffff1660e01b81526004016116049291906128f6565b6020604051808303816000875af1158015611623573d6000803e3d6000fd5b505050506040513d601f19601f82011682018060405250810190611647919061294b565b611686576040517f08c379a000000000000000000000000000000000000000000000000000000000815260040161167d90612d37565b60405180910390fd5b8381600301600082825461169a9190612d57565b9250508190555060008160030154036116db5760028160050160006101000a81548160ff021916908360038111156116d5576116d46123c3565b5b02179055505b600260008154809291906116ee90612c5e565b9190505591506040518060c001604052808473ffffffffffffffffffffffffffffffffffffffff16815260200186815260200185815260200160008152602001600015158152602001428152506004600084815260200190815260200160002060008201518160000160006101000a81548173ffffffffffffffffffffffffffffffffffffffff021916908373ffffffffffffffffffffffffffffffffffffffff16021790555060208201518160010155604082015181600201556060820151816003015560808201518160040160006101000a81548160ff02191690831515021790555060a082015181600501559050508273ffffffffffffffffffffffffffffffffffffffff1685837ff4a7b4a21a2d69714d25876ff21fba0c749dee781adc1785f367f2a5fc35146d8760008060405161182d93929190612d8b565b60405180910390a4847f14259b171a30f9d4473d657bac43fe7f95888aa702010a525446cd328e2eb5cb82600301548360050160009054906101000a900460ff1660405161187c929190612dc2565b60405180910390a2506000600760006101000a81548160ff0219169083151502179055509392505050565b60008084116118eb576040517f08c379a00000000000000000000000000000000000000000000000000000000081526004016118e290612b00565b60405180910390fd5b600060036000878152602001908152602001600020905060016003811115611916576119156123c3565b5b8160050160009054906101000a900460ff16600381111561193a576119396123c3565b5b14611971576040517ff525e32000000000000000000000000000000000000000000000000000000000815260040160405180910390fd5b80600301548511156119af576040517f5945ea5600000000000000000000000000000000000000000000000000000000815260040160405180910390fd5b6000816004015490508415611a03576119c661203e565b905060008103611a02576040517f925cc2bc00000000000000000000000000000000000000000000000000000000815260040160405180910390fd5b5b6000670de0b6b3a76400008783611a1a9190612deb565b611a249190612e5c565b9050600073ffffffffffffffffffffffffffffffffffffffff168360020160009054906101000a900473ffffffffffffffffffffffffffffffffffffffff1673ffffffffffffffffffffffffffffffffffffffff1603611c4f5780341015611ab8576040517f1101129400000000000000000000000000000000000000000000000000000000815260040160405180910390fd5b60008360000160009054906101000a900473ffffffffffffffffffffffffffffffffffffffff1673ffffffffffffffffffffffffffffffffffffffff1682604051611b0290612ebe565b60006040518083038185875af1925050503d8060008114611b3f576040519150601f19603f3d011682016040523d82523d6000602084013e611b44565b606091505b5050905080611b88576040517f08c379a0000000000000000000000000000000000000000000000000000000008152600401611b7f90612f1f565b60405180910390fd5b81341115611c495760003373ffffffffffffffffffffffffffffffffffffffff168334611bb59190612d57565b604051611bc190612ebe565b60006040518083038185875af1925050503d8060008114611bfe576040519150601f19603f3d011682016040523d82523d6000602084013e611c03565b606091505b5050905080611c47576040517f08c379a0000000000000000000000000000000000000000000000000000000008152600401611c3e90612f8b565b60405180910390fd5b505b50611d57565b8260020160009054906101000a900473ffffffffffffffffffffffffffffffffffffffff1673ffffffffffffffffffffffffffffffffffffffff166323b872dd338560000160009054906101000a900473ffffffffffffffffffffffffffffffffffffffff16846040518463ffffffff1660e01b8152600401611cd493929190612b8c565b6020604051808303816000875af1158015611cf3573d6000803e3d6000fd5b505050506040513d601f19601f82011682018060405250810190611d17919061294b565b611d56576040517f08c379a0000000000000000000000000000000000000000000000000000000008152600401611d4d90612ff7565b60405180910390fd5b5b8260010160009054906101000a900473ffffffffffffffffffffffffffffffffffffffff1673ffffffffffffffffffffffffffffffffffffffff1663a9059cbb86896040518363ffffffff1660e01b8152600401611db69291906128f6565b6020604051808303816000875af1158015611dd5573d6000803e3d6000fd5b505050506040513d601f19601f82011682018060405250810190611df9919061294b565b611e38576040517f08c379a0000000000000000000000000000000000000000000000000000000008152600401611e2f90612d37565b60405180910390fd5b86836003016000828254611e4c9190612d57565b925050819055506000836003015403611e8d5760028360050160006101000a81548160ff02191690836003811115611e8757611e866123c3565b5b02179055505b60026000815480929190611ea090612c5e565b9190505593506040518060c001604052808673ffffffffffffffffffffffffffffffffffffffff1681526020018981526020018881526020018281526020018715158152602001428152506004600086815260200190815260200160002060008201518160000160006101000a81548173ffffffffffffffffffffffffffffffffffffffff021916908373ffffffffffffffffffffffffffffffffffffffff16021790555060208201518160010155604082015181600201556060820151816003015560808201518160040160006101000a81548160ff02191690831515021790555060a082015181600501559050508473ffffffffffffffffffffffffffffffffffffffff1688857ff4a7b4a21a2d69714d25876ff21fba0c749dee781adc1785f367f2a5fc35146d8a858b604051611fdc93929190613017565b60405180910390a4877f14259b171a30f9d4473d657bac43fe7f95888aa702010a525446cd328e2eb5cb84600301548560050160009054906101000a900460ff1660405161202b929190612dc2565b60405180910390a2505050949350505050565b60008073ffffffffffffffffffffffffffffffffffffffff16600560009054906101000a900473ffffffffffffffffffffffffffffffffffffffff1673ffffffffffffffffffffffffffffffffffffffff16036120d0576040517f08c379a00000000000000000000000000000000000000000000000000000000081526004016120c79061309a565b60405180910390fd5b600080600560009054906101000a900473ffffffffffffffffffffffffffffffffffffffff1673ffffffffffffffffffffffffffffffffffffffff1663feaf968c6040518163ffffffff1660e01b815260040160a060405180830381865afa158015612140573d6000803e3d6000fd5b505050506040513d601f19601f820116820180604052508101906121649190613147565b50935050925050600082136121a5576040517f925cc2bc00000000000000000000000000000000000000000000000000000000815260040160405180910390fd5b60006006541180156121c3575060065481426121c19190612d57565b115b156121fa576040517f88cce42900000000000000000000000000000000000000000000000000000000815260040160405180910390fd5b819250505090565b6040518060e00160405280600073ffffffffffffffffffffffffffffffffffffffff168152602001600073ffffffffffffffffffffffffffffffffffffffff168152602001600073ffffffffffffffffffffffffffffffffffffffff168152602001600081526020016000815260200160006003811115612286576122856123c3565b5b8152602001600081525090565b6040518060c00160405280600073ffffffffffffffffffffffffffffffffffffffff168152602001600081526020016000815260200160008152602001600015158152602001600081525090565b6000819050919050565b6122f4816122e1565b82525050565b600060208201905061230f60008301846122eb565b92915050565b600080fd5b612323816122e1565b811461232e57600080fd5b50565b6000813590506123408161231a565b92915050565b60006020828403121561235c5761235b612315565b5b600061236a84828501612331565b91505092915050565b600073ffffffffffffffffffffffffffffffffffffffff82169050919050565b600061239e82612373565b9050919050565b6123ae81612393565b82525050565b6123bd816122e1565b82525050565b7f4e487b7100000000000000000000000000000000000000000000000000000000600052602160045260246000fd5b60048110612403576124026123c3565b5b50565b6000819050612414826123f2565b919050565b600061242482612406565b9050919050565b61243481612419565b82525050565b60e08201600082015161245060008501826123a5565b50602082015161246360208501826123a5565b50604082015161247660408501826123a5565b50606082015161248960608501826123b4565b50608082015161249c60808501826123b4565b5060a08201516124af60a085018261242b565b5060c08201516124c260c08501826123b4565b50505050565b600060e0820190506124dd600083018461243a565b92915050565b6124ec81612393565b82525050565b60008115159050919050565b612507816124f2565b82525050565b600060c08201905061252260008301896124e3565b61252f60208301886122eb565b61253c60408301876122eb565b61254960608301866122eb565b61255660808301856124fe565b61256360a08301846122eb565b979650505050505050565b612577816124f2565b82525050565b60c08201600082015161259360008501826123a5565b5060208201516125a660208501826123b4565b5060408201516125b960408501826123b4565b5060608201516125cc60608501826123b4565b5060808201516125df608085018261256e565b5060a08201516125f260a08501826123b4565b50505050565b600060c08201905061260d600083018461257d565b92915050565b61261c81612393565b811461262757600080fd5b50565b60008135905061263981612613565b92915050565b6000806000806080858703121561265957612658612315565b5b60006126678782880161262a565b94505060206126788782880161262a565b935050604061268987828801612331565b925050606061269a87828801612331565b91505092959194509250565b6000602082840312156126bc576126bb612315565b5b60006126ca8482850161262a565b91505092915050565b6000819050919050565b60006126f86126f36126ee84612373565b6126d3565b612373565b9050919050565b600061270a826126dd565b9050919050565b600061271c826126ff565b9050919050565b61272c81612711565b82525050565b60006020820190506127476000830184612723565b92915050565b60008060006060848603121561276657612765612315565b5b600061277486828701612331565b935050602061278586828701612331565b92505060406127968682870161262a565b9150509250925092565b60006020820190506127b560008301846124e3565b92915050565b600080604083850312156127d2576127d1612315565b5b60006127e085828601612331565b92505060206127f185828601612331565b9150509250929050565b61280481612419565b82525050565b600060e08201905061281f600083018a6124e3565b61282c60208301896124e3565b61283960408301886124e3565b61284660608301876122eb565b61285360808301866122eb565b61286060a08301856127fb565b61286d60c08301846122eb565b98975050505050505050565b600082825260208201905092915050565b7f5245454e5452414e435900000000000000000000000000000000000000000000600082015250565b60006128c0600a83612879565b91506128cb8261288a565b602082019050919050565b600060208201905081810360008301526128ef816128b3565b9050919050565b600060408201905061290b60008301856124e3565b61291860208301846122eb565b9392505050565b612928816124f2565b811461293357600080fd5b50565b6000815190506129458161291f565b92915050565b60006020828403121561296157612960612315565b5b600061296f84828501612936565b91505092915050565b7f524546554e445f4641494c000000000000000000000000000000000000000000600082015250565b60006129ae600b83612879565b91506129b982612978565b602082019050919050565b600060208201905081810360008301526129dd816129a1565b9050919050565b6000819050919050565b6000612a09612a046129ff846129e4565b6126d3565b6122e1565b9050919050565b612a19816129ee565b82525050565b6000604082019050612a346000830185612a10565b612a4160208301846127fb565b9392505050565b7f4e4f545f4f574e45520000000000000000000000000000000000000000000000600082015250565b6000612a7e600983612879565b9150612a8982612a48565b602082019050919050565b60006020820190508181036000830152612aad81612a71565b9050919050565b7f414d4f554e540000000000000000000000000000000000000000000000000000600082015250565b6000612aea600683612879565b9150612af582612ab4565b602082019050919050565b60006020820190508181036000830152612b1981612add565b9050919050565b7f5052494345000000000000000000000000000000000000000000000000000000600082015250565b6000612b56600583612879565b9150612b6182612b20565b602082019050919050565b60006020820190508181036000830152612b8581612b49565b9050919050565b6000606082019050612ba160008301866124e3565b612bae60208301856124e3565b612bbb60408301846122eb565b949350505050565b7f5452414e534645525f494e000000000000000000000000000000000000000000600082015250565b6000612bf9600b83612879565b9150612c0482612bc3565b602082019050919050565b60006020820190508181036000830152612c2881612bec565b9050919050565b7f4e487b7100000000000000000000000000000000000000000000000000000000600052601160045260246000fd5b6000612c69826122e1565b91507fffffffffffffffffffffffffffffffffffffffffffffffffffffffffffffffff8203612c9b57612c9a612c2f565b5b600182019050919050565b6000608082019050612cbb60008301876124e3565b612cc860208301866124e3565b612cd560408301856122eb565b612ce260608301846122eb565b95945050505050565b7f5452414e534645525f4f55540000000000000000000000000000000000000000600082015250565b6000612d21600c83612879565b9150612d2c82612ceb565b602082019050919050565b60006020820190508181036000830152612d5081612d14565b9050919050565b6000612d62826122e1565b9150612d6d836122e1565b9250828203905081811115612d8557612d84612c2f565b5b92915050565b6000606082019050612da060008301866122eb565b612dad6020830185612a10565b612dba60408301846124fe565b949350505050565b6000604082019050612dd760008301856122eb565b612de460208301846127fb565b9392505050565b6000612df6826122e1565b9150612e01836122e1565b9250828202612e0f816122e1565b91508282048414831517612e2657612e25612c2f565b5b5092915050565b7f4e487b7100000000000000000000000000000000000000000000000000000000600052601260045260246000fd5b6000612e67826122e1565b9150612e72836122e1565b925082612e8257612e81612e2d565b5b828204905092915050565b600081905092915050565b50565b6000612ea8600083612e8d565b9150612eb382612e98565b600082019050919050565b6000612ec982612e9b565b9150819050919050565b7f5041595f4e415449564500000000000000000000000000000000000000000000600082015250565b6000612f09600a83612879565b9150612f1482612ed3565b602082019050919050565b60006020820190508181036000830152612f3881612efc565b9050919050565b7f524546554e445f4e415449564500000000000000000000000000000000000000600082015250565b6000612f75600d83612879565b9150612f8082612f3f565b602082019050919050565b60006020820190508181036000830152612fa481612f68565b9050919050565b7f5041595f45524332300000000000000000000000000000000000000000000000600082015250565b6000612fe1600983612879565b9150612fec82612fab565b602082019050919050565b6000602082019050818103600083015261301081612fd4565b9050919050565b600060608201905061302c60008301866122eb565b61303960208301856122eb565b61304660408301846124fe565b949350505050565b7f4e4f5f4f5241434c450000000000000000000000000000000000000000000000600082015250565b6000613084600983612879565b915061308f8261304e565b602082019050919050565b600060208201905081810360008301526130b381613077565b9050919050565b600069ffffffffffffffffffff82169050919050565b6130d9816130ba565b81146130e457600080fd5b50565b6000815190506130f6816130d0565b92915050565b6000819050919050565b61310f816130fc565b811461311a57600080fd5b50565b60008151905061312c81613106565b92915050565b6000815190506131418161231a565b92915050565b600080600080600060a0868803121561316357613162612315565b5b6000613171888289016130e7565b95505060206131828882890161311d565b945050604061319388828901613132565b93505060606131a488828901613132565b92505060806131b5888289016130e7565b915050929550929590935056fea2646970667358221220a8932e6f465491909cb05c27dd8cb2474056163afa914937b14bb5a0fb687d5a64736f6c63430008180033",
  "linkReferences": {},
  "deployedLinkReferences": {}
}