{
  "_format": "hh-sol-artifact-1",
  "contractName": "P2PMarketplace",
  "sourceName": "contracts/P2PMarketplace.sol",
  "abi": [
    {
      "inputs": [
        {
          "internalType": "address",
          "name": "_priceFeed",
          "type": "address"
        }
      ],
      "stateMutability": "nonpayable",
      "type": "constructor"
    },
    {
      "inputs": [],
      "name": "InsufficientAmount",
      "type": "error"
    },
    {
      "inputs": [],
      "name": "InsufficientValue",
      "type": "error"
    },
    {
      "inputs": [],
      "name": "InvalidStatus",
      "type": "error"
    },
    {
      "inputs": [],
      "name": "NotSeller",
      "type": "error"
    },
    {
      "inputs": [],
      "name": "PriceNotPositive",
      "type": "error"
    },
    {
      "inputs": [],
      "name": "StaleOracle",
      "type": "error"
    },
    {
      "anonymous": false,
      "inputs": [
        {
          "indexed": true,
          "internalType": "uint256",
          "name": "listingId",
          "type": "uint256"
        },
        {
          "indexed": false,
          "internalType": "uint256",
          "name": "refundedAmount",
          "type": "uint256"
        }
      ],
      "name": "ListingCancelled",
      "type": "event"
    },
    {
      "anonymous": false,
      "inputs": [
        {
          "indexed": true,
          "internalType": "uint256",
          "name": "listingId",
          "type": "uint256"
        },
        {
          "indexed": true,
          "internalType": "address",
          "name": "seller",
          "type": "address"
        },
        {
          "indexed": false,
          "internalType": "address",
          "name": "token",
          "type": "address"
        },
        {
          "indexed": false,
          "internalType": "address",
          "name": "paymentToken",
          "type": "address"
        },
        {
          "indexed": false,
          "internalType": "uint256",
          "name": "amount",
          "type": "uint256"
        },
        {
          "indexed": false,
          "internalType": "uint256",
          "name": "pricePerUnit",
          "type": "uint256"
        }
      ],
      "name": "ListingCreated",
      "type": "event"
    },
    {
      "anonymous": false,
      "inputs": [
        {
          "indexed": true,
          "internalType": "uint256",
          "name": "listingId",
          "type": "uint256"
        },
        {
          "indexed": false,
          "internalType": "uint256",
          "name": "remainingAmount",
          "type": "uint256"
        },
        {
          "indexed": false,
          "internalType": "enum P2PMarketplace.ListingStatus",
          "name": "status",
          "type": "uint8"
        }
      ],
      "name": "ListingUpdated",
      "type": "event"
    },
    {
      "anonymous": false,
      "inputs": [
        {
          "indexed": false,
          "internalType": "uint256",
          "name": "maxStaleTime",
          "type": "uint256"
        }
      ],
      "name": "MaxStaleUpdated",
      "type": "event"
    },
    {
      "anonymous": false,
      "inputs": [
        {
          "indexed": true,
          "internalType": "address",
          "name": "feed",
          "type": "address"
        }
      ],
      "name": "PriceFeedUpdated",
      "type": "event"
    },
    {
      "anonymous": false,
      "inputs": [
        {
          "indexed": true,
          "internalType": "uint256",
          "name": "tradeId",
          "type": "uint256"
        },
        {
          "indexed": true,
          "internalType": "uint256",
          "name": "listingId",
          "type": "uint256"
        },
        {
          "indexed": true,
          "internalType": "address",
          "name": "buyer",
          "type": "address"
        },
        {
          "indexed": false,
          "internalType": "uint256",
          "name": "amount",
          "type": "uint256"
        },
        {
          "indexed": false,
          "internalType": "uint256",
          "name": "totalPaid",
          "type": "uint256"
        },
        {
          "indexed": false,
          "internalType": "bool",
          "name": "usedOraclePrice",
          "type": "bool"
        }
      ],
      "name": "TradeExecuted",
      "type": "event"
    },
    {
      "inputs": [
        {
          "internalType": "uint256",
          "name": "listingId",
          "type": "uint256"
        },
        {
          "internalType": "uint256",
          "name": "amount",
          "type": "uint256"
        }
      ],
      "name": "buy",
      "outputs": [
        {
          "internalType": "uint256",
          "name": "",
          "type": "uint256"
        }
      ],
      "stateMutability": "payable",
      "type": "function"
    },
    {
      "inputs": [
        {
          "internalType": "uint256",
          "name": "listingId",
          "type": "uint256"
        },
        {
          "internalType": "uint256",
          "name": "amount",
          "type": "uint256"
        }
      ],
      "name": "buyAtMarket",
      "outputs": [
        {
          "internalType": "uint256",
          "name": "",
          "type": "uint256"
        }
      ],
      "stateMutability": "payable",
      "type": "function"
    },
    {
      "inputs": [
        {
          "internalType": "uint256",
          "name": "listingId",
          "type": "uint256"
        }
      ],
      "name": "cancelListing",
      "outputs": [],
      "stateMutability": "nonpayable",
      "type": "function"
    },
    {
      "inputs": [
        {
          "internalType": "address",
          "name": "token",
          "type": "address"
        },
        {
          "internalType": "address",
          "name": "paymentToken",
          "type": "address"
        },
        {
          "internalType": "uint256",
          "name": "amount",
          "type": "uint256"
        },
        {
          "internalType": "uint256",
          "name": "pricePerUnit",
          "type": "uint256"
        }
      ],
      "name": "createListing",
      "outputs": [
        {
          "internalType": "uint256",
          "name": "",
          "type": "uint256"
        }
      ],
      "stateMutability": "nonpayable",
      "type": "function"
    },
    {
      "inputs": [
        {
          "internalType": "uint256",
          "name": "listingId",
          "type": "uint256"
        }
      ],
      "name": "getListing",
      "outputs": [
        {
          "components": [
            {
              "internalType": "address",
              "name": "seller",
              "type": "address"
            },
            {
              "internalType": "address",
              "name": "token",
              "type": "address"
            },
            {
              "internalType": "address",
              "name": "paymentToken",
              "type": "address"
            },
            {
              "internalType": "uint256",
              "name": "remainingAmount",
              "type": "uint256"
            },
            {
              "internalType": "uint256",
              "name": "pricePerUnit",
              "type": "uint256"
            },
            {
              "internalType": "enum P2PMarketplace.ListingStatus",
              "name": "status",
              "type": "uint8"
            },
            {
              "internalType": "uint256",
              "name": "createdAt",
              "type": "uint256"
            }
          ],
          "internalType": "struct P2PMarketplace.Listing",
          "name": "",
          "type": "tuple"
        }
      ],
      "stateMutability": "view",
      "type": "function"
    },
    {
      "inputs": [
        {
          "internalType": "uint256",
          "name": "tradeId",
          "type": "uint256"
        }
      ],
      "name": "getTrade",
      "outputs": [
        {
          "components": [
            {
              "internalType": "address",
              "name": "buyer",
              "type": "address"
            },
            {
              "internalType": "uint256",
              "name": "listingId",
              "type": "uint256"
            },
            {
              "internalType": "uint256",
              "name": "amount",
              "type": "uint256"
            },
            {
              "internalType": "uint256",
              "name": "totalPaid",
              "type": "uint256"
            },
            {
              "internalType": "bool",
              "name": "usedOraclePrice",
              "type": "bool"
            },
            {
              "internalType": "uint256",
              "name": "timestamp",
              "type": "uint256"
            }
          ],
          "internalType": "struct P2PMarketplace.Trade",
          "name": "",
          "type": "tuple"
        }
      ],
      "stateMutability": "view",
      "type": "function"
    },
    {
      "inputs": [
        {
          "internalType": "uint256",
          "name": "",
          "type": "uint256"
        }
      ],
      "name": "listings",
      "outputs": [
        {
          "internalType": "address",
          "name": "seller",
          "type": "address"
        },
        {
          "internalType": "address",
          "name": "token",
          "type": "address"
        },
        {
          "internalType": "address",
          "name": "paymentToken",
          "type": "address"
        },
        {
          "internalType": "uint256",
          "name": "remainingAmount",
          "type": "uint256"
        },
        {
          "internalType": "uint256",
          "name": "pricePerUnit",
          "type": "uint256"
        },
        {
          "internalType": "enum P2PMarketplace.ListingStatus",
          "name": "status",
          "type": "uint8"
        },
        {
          "internalType": "uint256",
          "name": "createdAt",
          "type": "uint256"
        }
      ],
      "stateMutability": "view",
      "type": "function"
    },
    {
      "inputs": [],
      "name": "maxStaleTime",
      "outputs": [
        {
          "internalType": "uint256",
          "name": "",
          "type": "uint256"
        }
      ],
      "stateMutability": "view",
      "type": "function"
    },
    {
      "inputs": [],
      "name": "nextListingId",
      "outputs": [
        {
          "internalType": "uint256",
          "name": "",
          "type": "uint256"
        }
      ],
      "stateMutability": "view",
      "type": "function"
    },
    {
      "inputs": [],
      "name": "nextTradeId",
      "outputs": [
        {
          "internalType": "uint256",
          "name": "",
          "type": "uint256"
        }
      ],
      "stateMutability": "view",
      "type": "function"
    },
    {
      "inputs": [],
      "name": "owner",
      "outputs": [
        {
          "internalType": "address",
          "name": "",
          "type": "address"
        }
      ],
      "stateMutability": "view",
      "type": "function"
    },
    {
      "inputs": [],
      "name": "priceFeed",
      "outputs": [
        {
          "internalType": "contract IAggregator",
          "name": "",
          "type": "address"
        }
      ],
      "stateMutability": "view",
      "type": "function"
    },
    {
      "inputs": [
        {
          "internalType": "uint256",
          "name": "_seconds",
          "type": "uint256"
        }
      ],
      "name": "setMaxStaleTime",
      "outputs": [],
      "stateMutability": "nonpayable",
      "type": "function"
    },
    {
      "inputs": [
        {
          "internalType": "address",
          "name": "_priceFeed",
          "type": "address"
        }
      ],
      "name": "setPriceFeed",
      "outputs": [],
      "stateMutability": "nonpayable",
      "type": "function"
    },
    {
      "inputs": [
        {
          "internalType": "uint256",
          "name": "",
          "type": "uint256"
        }
      ],
      "name": "trades",
      "outputs": [
        {
          "internalType": "address",
          "name": "buyer",
          "type": "address"
        },
        {
          "internalType": "uint256",
          "name": "listingId",
          "type": "uint256"
        },
        {
          "internalType": "uint256",
          "name": "amount",
          "type": "uint256"
        },
        {
          "internalType": "uint256",
          "name": "totalPaid",
          "type": "uint256"
        },
        {
          "internalType": "bool",
          "name": "usedOraclePrice",
          "type": "bool"
        },
        {
          "internalType": "uint256",
          "name": "timestamp",
          "type": "uint256"
        }
      ],
      "stateMutability": "view",
      "type": "function"
    }
  ],
  "bytecode": "0x60806040526001805560016002556107086006553480156200002057600080fd5b5060405162002bcf38038062002bcf833981810160405281019062000046919062000138565b336000806101000a81548173ffffffffffffffffffffffffffffffffffffffff021916908373ffffffffffffffffffffffffffffffffffffffff16021790555080600560006101000a81548173ffffffffffffffffffffffffffffffffffffffff021916908373ffffffffffffffffffffffffffffffffffffffff160217905550506200016a565b600080fd5b600073ffffffffffffffffffffffffffffffffffffffff82169050919050565b60006200010082620000d3565b9050919050565b6200011281620000f3565b81146200011e57600080fd5b50565b600081519050620001328162000107565b92915050565b600060208284031215620001515762000150620000ce565b5b6000620001618482850162000121565b91505092915050565b612a55806200017a6000396000f3fe6080604052600436106100e85760003560e01c8063724e78da1161008a578063aaccf1ec11610059578063aaccf1ec1461030d578063bfef0bc214610338578063d6febde814610368578063de74e57b14610398576100e8565b8063724e78da14610263578063741bef1a1461028c578063813ad083146102b75780638da5cb5b146102e2576100e8565b80632db25e05116100c65780632db25e0514610197578063305a67a8146101d45780635a5e6a8a146101fd578063619a55e814610226576100e8565b80630f276686146100ed578063107a274a146101185780631e6c598e14610155575b600080fd5b3480156100f957600080fd5b506101026103db565b60405161010f9190611c41565b60405180910390f35b34801561012457600080fd5b5061013f600480360381019061013a9190611c8d565b6103e1565b60405161014c9190611e0f565b60405180910390f35b34801561016157600080fd5b5061017c60048036038101906101779190611c8d565b610569565b60405161018e96959493929190611e54565b60405180910390f35b3480156101a357600080fd5b506101be60048036038101906101b99190611c8d565b6105d2565b6040516101cb9190611f3f565b60405180910390f35b3480156101e057600080fd5b506101fb60048036038101906101f69190611c8d565b610698565b005b34801561020957600080fd5b50610224600480360381019061021f9190611c8d565b6109d7565b005b34801561023257600080fd5b5061024d60048036038101906102489190611f86565b610aa6565b60405161025a9190611c41565b60405180910390f35b34801561026f57600080fd5b5061028a60048036038101906102859190611fed565b610eb0565b005b34801561029857600080fd5b506102a1610fc5565b6040516102ae9190612079565b60405180910390f35b3480156102c357600080fd5b506102cc610feb565b6040516102d99190611c41565b60405180910390f35b3480156102ee57600080fd5b506102f7610ff1565b6040516103049190612094565b60405180910390f35b34801561031957600080fd5b50610322611015565b60405161032f9190611c41565b60405180910390f35b610352600480360381019061034d91906120af565b61101b565b60405161035f9190611c41565b60405180910390f35b610382600480360381019061037d91906120af565b6110b7565b60405161038f9190611c41565b60405180910390f35b3480156103a457600080fd5b506103bf60048036038101906103ba9190611c8d565b611153565b6040516103d297969594939291906120fe565b60405180910390f35b60065481565b6103e9611b49565b600360008381526020019081526020016000206040518060e00160405290816000820160009054906101000a900473ffffffffffffffffffffffffffffffffffffffff1673ffffffffffffffffffffffffffffffffffffffff1673ffffffffffffffffffffffffffffffffffffffff1681526020016001820160009054906101000a900473ffffffffffffffffffffffffffffffffffffffff1673ffffffffffffffffffffffffffffffffffffffff1673ffffffffffffffffffffffffffffffffffffffff1681526020016002820160009054906101000a900473ffffffffffffffffffffffffffffffffffffffff1673ffffffffffffffffffffffffffffffffffffffff1673ffffffffffffffffffffffffffffffffffffffff16815260200160038201548152602001600482015481526020016005820160009054906101000a900460ff16600381111561054257610541611d0a565b5b600381111561055457610553611d0a565b5b81526020016006820154815250509050919050565b60046020528060005260406000206000915090508060000160009054906101000a900473ffffffffffffffffffffffffffffffffffffffff16908060010154908060020154908060030154908060040160009054906101000a900460ff16908060050154905086565b6105da611bda565b600460008381526020019081526020016000206040518060c00160405290816000820160009054906101000a900473ffffffffffffffffffffffffffffffffffffffff1673ffffffffffffffffffffffffffffffffffffffff1673ffffffffffffffffffffffffffffffffffffffff1681526020016001820154815260200160028201548152602001600382015481526020016004820160009054906101000a900460ff161515151581526020016005820154815250509050919050565b600760009054906101000a900460ff16156106e8576040517f08c379a00000000000000000000000000000000000000000000000000000000081526004016106df906121ca565b60405180910390fd5b6001600760006101000a81548160ff02191690831515021790555060006003600083815260200190815260200160002090503373ffffffffffffffffffffffffffffffffffffffff168160000160009054906101000a900473ffffffffffffffffffffffffffffffffffffffff1673ffffffffffffffffffffffffffffffffffffffff16146107a3576040517f5ec8235100000000000000000000000000000000000000000000000000000000815260040160405180910390fd5b600160038111156107b7576107b6611d0a565b5b8160050160009054906101000a900460ff1660038111156107db576107da611d0a565b5b14610812576040517ff525e32000000000000000000000000000000000000000000000000000000000815260040160405180910390fd5b60038160050160006101000a81548160ff0219169083600381111561083a57610839611d0a565b5b0217905550600081600301549050600082600301819055508160010160009054906101000a900473ffffffffffffffffffffffffffffffffffffffff1673ffffffffffffffffffffffffffffffffffffffff1663a9059cbb33836040518363ffffffff1660e01b81526004016108b19291906121ea565b6020604051808303816000875af11580156108d0573d6000803e3d6000fd5b505050506040513d601f19601f820116820180604052508101906108f4919061223f565b610933576040517f08c379a000000000000000000000000000000000000000000000000000000000815260040161092a906122b8565b60405180910390fd5b827fafd0a85a3f09cebbc7d9fcde08e8a7d0ebb0aa7d768a030915c3816a053d3c7a826040516109639190611c41565b60405180910390a2827f14259b171a30f9d4473d657bac43fe7f95888aa702010a525446cd328e2eb5cb60008460050160009054906101000a900460ff166040516109af929190612313565b60405180910390a250506000600760006101000a81548160ff02191690831515021790555050565b60008054906101000a900473ffffffffffffffffffffffffffffffffffffffff1673ffffffffffffffffffffffffffffffffffffffff163373ffffffffffffffffffffffffffffffffffffffff1614610a65576040517f08c379a0000000000000000000000000000000000000000000000000000000008152600401610a5c90612388565b60405180910390fd5b806006819055507f4838e049548a81c133129ea2fb44509b03242308ae3b9719f81fd9297f00208581604051610a9b9190611c41565b60405180910390a150565b6000600760009054906101000a900460ff1615610af8576040517f08c379a0000000000000000000000000000000000000000000000000000000008152600401610aef906121ca565b60405180910390fd5b6001600760006101000a81548160ff02191690831515021790555060008311610b56576040517f08c379a0000000000000000000000000000000000000000000000000000000008152600401610b4d906123f4565b60405180910390fd5b60008211610b99576040517f08c379a0000000000000000000000000000000000000000000000000000000008152600401610b9090612460565b60405180910390fd5b8473ffffffffffffffffffffffffffffffffffffffff166323b872dd3330866040518463ffffffff1660e01b8152600401610bd693929190612480565b6020604051808303816000875af1158015610bf5573d6000803e3d6000fd5b505050506040513d601f19601f82011682018060405250810190610c19919061223f565b610c58576040517f08c379a0000000000000000000000000000000000000000000000000000000008152600401610c4f90612503565b60405180910390fd5b600060016000815480929190610c6d90612552565b9190505590506040518060e001604052803373ffffffffffffffffffffffffffffffffffffffff1681526020018773ffffffffffffffffffffffffffffffffffffffff1681526020018673ffffffffffffffffffffffffffffffffffffffff16815260200185815260200184815260200160016003811115610cf257610cf1611d0a565b5b8152602001428152506003600083815260200190815260200160002060008201518160000160006101000a81548173ffffffffffffffffffffffffffffffffffffffff021916908373ffffffffffffffffffffffffffffffffffffffff16021790555060208201518160010160006101000a81548173ffffffffffffffffffffffffffffffffffffffff021916908373ffffffffffffffffffffffffffffffffffffffff16021790555060408201518160020160006101000a81548173ffffffffffffffffffffffffffffffffffffffff021916908373ffffffffffffffffffffffffffffffffffffffff160217905550606082015181600301556080820151816004015560a08201518160050160006101000a81548160ff02191690836003811115610e2257610e21611d0a565b5b021790555060c082015181600601559050503373ffffffffffffffffffffffffffffffffffffffff16817f8eb00fec29bf9fc68086a69e6759c52135427dc0044397ff3777b349124a1e4688888888604051610e81949392919061259a565b60405180910390a3809150506000600760006101000a81548160ff021916908315150217905550949350505050565b60008054906101000a900473ffffffffffffffffffffffffffffffffffffffff1673ffffffffffffffffffffffffffffffffffffffff163373ffffffffffffffffffffffffffffffffffffffff1614610f3e576040517f08c379a0000000000000000000000000000000000000000000000000000000008152600401610f3590612388565b60405180910390fd5b80600560006101000a81548173ffffffffffffffffffffffffffffffffffffffff021916908373ffffffffffffffffffffffffffffffffffffffff1602179055508073ffffffffffffffffffffffffffffffffffffffff167fe5b20b8497e4f3e2435ef9c20e2e26b47497ee13745ce1c681ad6640653119e660405160405180910390a250565b600560009054906101000a900473ffffffffffffffffffffffffffffffffffffffff1681565b60025481565b60008054906101000a900473ffffffffffffffffffffffffffffffffffffffff1681565b60015481565b6000600760009054906101000a900460ff161561106d576040517f08c379a0000000000000000000000000000000000000000000000000000000008152600401611064906121ca565b60405180910390fd5b6001600760006101000a81548160ff02191690831515021790555061109483836001611202565b90506000600760006101000a81548160ff02191690831515021790555092915050565b6000600760009054906101000a900460ff1615611109576040517f08c379a0000000000000000000000000000000000000000000000000000000008152600401611100906121ca565b60405180910390fd5b6001600760006101000a81548160ff02191690831515021790555061113083836000611202565b90506000600760006101000a81548160ff02191690831515021790555092915050565b60036020528060005260406000206000915090508060000160009054906101000a900473ffffffffffffffffffffffffffffffffffffffff16908060010160009054906101000a900473ffffffffffffffffffffffffffffffffffffffff16908060020160009054906101000a900473ffffffffffffffffffffffffffffffffffffffff16908060030154908060040154908060050160009054906101000a900460ff16908060060154905087565b6000808311611246576040517f08c379a000000000000000000000000000000000000000000000000000000000815260040161123d906123f4565b60405180910390fd5b60006003600086815260200190815260200160002090506001600381111561127157611270611d0a565b5b8160050160009054906101000a900460ff16600381111561129557611294611d0a565b5b146112cc576040517ff525e32000000000000000000000000000000000000000000000000000000000815260040160405180910390fd5b806003015484111561130a576040517f5945ea5600000000000000000000000000000000000000000000000000000000815260040160405180910390fd5b600081600401549050831561135e57611321611985565b90506000810361135d576040517f925cc2bc00000000000000000000000000000000000000000000000000000000815260040160405180910390fd5b5b6000858261136c91906125df565b9050600073ffffffffffffffffffffffffffffffffffffffff168360020160009054906101000a900473ffffffffffffffffffffffffffffffffffffffff1673ffffffffffffffffffffffffffffffffffffffff16036115975780341015611400576040517f1101129400000000000000000000000000000000000000000000000000000000815260040160405180910390fd5b60008360000160009054906101000a900473ffffffffffffffffffffffffffffffffffffffff1673ffffffffffffffffffffffffffffffffffffffff168260405161144a90612652565b60006040518083038185875af1925050503d8060008114611487576040519150601f19603f3d011682016040523d82523d6000602084013e61148c565b606091505b50509050806114d0576040517f08c379a00000000000000000000000000000000000000000000000000000000081526004016114c7906126b3565b60405180910390fd5b813411156115915760003373ffffffffffffffffffffffffffffffffffffffff1683346114fd91906126d3565b60405161150990612652565b60006040518083038185875af1925050503d8060008114611546576040519150601f19603f3d011682016040523d82523d6000602084013e61154b565b606091505b505090508061158f576040517f08c379a000000000000000000000000000000000000000000000000000000000815260040161158690612753565b60405180910390fd5b505b5061169f565b8260020160009054906101000a900473ffffffffffffffffffffffffffffffffffffffff1673ffffffffffffffffffffffffffffffffffffffff166323b872dd338560000160009054906101000a900473ffffffffffffffffffffffffffffffffffffffff16846040518463ffffffff1660e01b815260040161161c93929190612480565b6020604051808303816000875af115801561163b573d6000803e3d6000fd5b505050506040513d601f19601f8201168201806040525081019061165f919061223f565b61169e576040517f08c379a0000000000000000000000000000000000000000000000000000000008152600401611695906127bf565b60405180910390fd5b5b8260010160009054906101000a900473ffffffffffffffffffffffffffffffffffffffff1673ffffffffffffffffffffffffffffffffffffffff1663a9059cbb33886040518363ffffffff1660e01b81526004016116fe9291906121ea565b6020604051808303816000875af115801561171d573d6000803e3d6000fd5b505050506040513d601f19601f82011682018060405250810190611741919061223f565b611780576040517f08c379a00000000000000000000000000000000000000000000000000000000081526004016117779061282b565b60405180910390fd5b8583600301600082825461179491906126d3565b9250508190555060008360030154036117d55760028360050160006101000a81548160ff021916908360038111156117cf576117ce611d0a565b5b02179055505b600260008154809291906117e890612552565b9190505593506040518060c001604052803373ffffffffffffffffffffffffffffffffffffffff1681526020018881526020018781526020018281526020018615158152602001428152506004600086815260200190815260200160002060008201518160000160006101000a81548173ffffffffffffffffffffffffffffffffffffffff021916908373ffffffffffffffffffffffffffffffffffffffff16021790555060208201518160010155604082015181600201556060820151816003015560808201518160040160006101000a81548160ff02191690831515021790555060a082015181600501559050503373ffffffffffffffffffffffffffffffffffffffff1687857ff4a7b4a21a2d69714d25876ff21fba0c749dee781adc1785f367f2a5fc35146d89858a6040516119249392919061284b565b60405180910390a4867f14259b171a30f9d4473d657bac43fe7f95888aa702010a525446cd328e2eb5cb84600301548560050160009054906101000a900460ff16604051611973929190612882565b60405180910390a25050509392505050565b60008073ffffffffffffffffffffffffffffffffffffffff16600560009054906101000a900473ffffffffffffffffffffffffffffffffffffffff1673ffffffffffffffffffffffffffffffffffffffff1603611a17576040517f08c379a0000000000000000000000000000000000000000000000000000000008152600401611a0e906128f7565b60405180910390fd5b600080600560009054906101000a900473ffffffffffffffffffffffffffffffffffffffff1673ffffffffffffffffffffffffffffffffffffffff1663feaf968c6040518163ffffffff1660e01b815260040160a060405180830381865afa158015611a87573d6000803e3d6000fd5b505050506040513d601f19601f82011682018060405250810190611aab91906129a4565b5093505092505060008213611aec576040517f925cc2bc00000000000000000000000000000000000000000000000000000000815260040160405180910390fd5b6000600654118015611b0a57506006548142611b0891906126d3565b115b15611b41576040517f88cce42900000000000000000000000000000000000000000000000000000000815260040160405180910390fd5b819250505090565b6040518060e00160405280600073ffffffffffffffffffffffffffffffffffffffff168152602001600073ffffffffffffffffffffffffffffffffffffffff168152602001600073ffffffffffffffffffffffffffffffffffffffff168152602001600081526020016000815260200160006003811115611bcd57611bcc611d0a565b5b8152602001600081525090565b6040518060c00160405280600073ffffffffffffffffffffffffffffffffffffffff168152602001600081526020016000815260200160008152602001600015158152602001600081525090565b6000819050919050565b611c3b81611c28565b82525050565b6000602082019050611c566000830184611c32565b92915050565b600080fd5b611c6a81611c28565b8114611c7557600080fd5b50565b600081359050611c8781611c61565b92915050565b600060208284031215611ca357611ca2611c5c565b5b6000611cb184828501611c78565b91505092915050565b600073ffffffffffffffffffffffffffffffffffffffff82169050919050565b6000611ce582611cba565b9050919050565b611cf581611cda565b82525050565b611d0481611c28565b82525050565b7f4e487b7100000000000000000000000000000000000000000000000000000000600052602160045260246000fd5b60048110611d4a57611d49611d0a565b5b50565b6000819050611d5b82611d39565b919050565b6000611d6b82611d4d565b9050919050565b611d7b81611d60565b82525050565b60e082016000820151611d976000850182611cec565b506020820151611daa6020850182611cec565b506040820151611dbd6040850182611cec565b506060820151611dd06060850182611cfb565b506080820151611de36080850182611cfb565b5060a0820151611df660a0850182611d72565b5060c0820151611e0960c0850182611cfb565b50505050565b600060e082019050611e246000830184611d81565b92915050565b611e3381611cda565b82525050565b60008115159050919050565b611e4e81611e39565b82525050565b600060c082019050611e696000830189611e2a565b611e766020830188611c32565b611e836040830187611c32565b611e906060830186611c32565b611e9d6080830185611e45565b611eaa60a0830184611c32565b979650505050505050565b611ebe81611e39565b82525050565b60c082016000820151611eda6000850182611cec565b506020820151611eed6020850182611cfb565b506040820151611f006040850182611cfb565b506060820151611f136060850182611cfb565b506080820151611f266080850182611eb5565b5060a0820151611f3960a0850182611cfb565b50505050565b600060c082019050611f546000830184611ec4565b92915050565b611f6381611cda565b8114611f6e57600080fd5b50565b600081359050611f8081611f5a565b92915050565b60008060008060808587031215611fa057611f9f611c5c565b5b6000611fae87828801611f71565b9450506020611fbf87828801611f71565b9350506040611fd087828801611c78565b9250506060611fe187828801611c78565b91505092959194509250565b60006020828403121561200357612002611c5c565b5b600061201184828501611f71565b91505092915050565b6000819050919050565b600061203f61203a61203584611cba565b61201a565b611cba565b9050919050565b600061205182612024565b9050919050565b600061206382612046565b9050919050565b61207381612058565b82525050565b600060208201905061208e600083018461206a565b92915050565b60006020820190506120a96000830184611e2a565b92915050565b600080604083850312156120c6576120c5611c5c565b5b60006120d485828601611c78565b92505060206120e585828601611c78565b9150509250929050565b6120f881611d60565b82525050565b600060e082019050612113600083018a611e2a565b6121206020830189611e2a565b61212d6040830188611e2a565b61213a6060830187611c32565b6121476080830186611c32565b61215460a08301856120ef565b61216160c0830184611c32565b98975050505050505050565b600082825260208201905092915050565b7f5245454e5452414e435900000000000000000000000000000000000000000000600082015250565b60006121b4600a8361216d565b91506121bf8261217e565b602082019050919050565b600060208201905081810360008301526121e3816121a7565b9050919050565b60006040820190506121ff6000830185611e2a565b61220c6020830184611c32565b9392505050565b61221c81611e39565b811461222757600080fd5b50565b60008151905061223981612213565b92915050565b60006020828403121561225557612254611c5c565b5b60006122638482850161222a565b91505092915050565b7f524546554e445f4641494c000000000000000000000000000000000000000000600082015250565b60006122a2600b8361216d565b91506122ad8261226c565b602082019050919050565b600060208201905081810360008301526122d181612295565b9050919050565b6000819050919050565b60006122fd6122f86122f3846122d8565b61201a565b611c28565b9050919050565b61230d816122e2565b82525050565b60006040820190506123286000830185612304565b61233560208301846120ef565b9392505050565b7f4e4f545f4f574e45520000000000000000000000000000000000000000000000600082015250565b600061237260098361216d565b915061237d8261233c565b602082019050919050565b600060208201905081810360008301526123a181612365565b9050919050565b7f414d4f554e540000000000000000000000000000000000000000000000000000600082015250565b60006123de60068361216d565b91506123e9826123a8565b602082019050919050565b6000602082019050818103600083015261240d816123d1565b9050919050565b7f5052494345000000000000000000000000000000000000000000000000000000600082015250565b600061244a60058361216d565b915061245582612414565b602082019050919050565b600060208201905081810360008301526124798161243d565b9050919050565b60006060820190506124956000830186611e2a565b6124a26020830185611e2a565b6124af6040830184611c32565b949350505050565b7f5452414e534645525f494e000000000000000000000000000000000000000000600082015250565b60006124ed600b8361216d565b91506124f8826124b7565b602082019050919050565b6000602082019050818103600083015261251c816124e0565b9050919050565b7f4e487b7100000000000000000000000000000000000000000000000000000000600052601160045260246000fd5b600061255d82611c28565b91507fffffffffffffffffffffffffffffffffffffffffffffffffffffffffffffffff820361258f5761258e612523565b5b600182019050919050565b60006080820190506125af6000830187611e2a565b6125bc6020830186611e2a565b6125c96040830185611c32565b6125d66060830184611c32565b95945050505050565b60006125ea82611c28565b91506125f583611c28565b925082820261260381611c28565b9150828204841483151761261a57612619612523565b5b5092915050565b600081905092915050565b50565b600061263c600083612621565b91506126478261262c565b600082019050919050565b600061265d8261262f565b9150819050919050565b7f5041595f4e415449564500000000000000000000000000000000000000000000600082015250565b600061269d600a8361216d565b91506126a882612667565b602082019050919050565b600060208201905081810360008301526126cc81612690565b9050919050565b60006126de82611c28565b91506126e983611c28565b925082820390508181111561270157612700612523565b5b92915050565b7f524546554e445f4e415449564500000000000000000000000000000000000000600082015250565b600061273d600d8361216d565b915061274882612707565b602082019050919050565b6000602082019050818103600083015261276c81612730565b9050919050565b7f5041595f45524332300000000000000000000000000000000000000000000000600082015250565b60006127a960098361216d565b91506127b482612773565b602082019050919050565b600060208201905081810360008301526127d88161279c565b9050919050565b7f5452414e534645525f4f55540000000000000000000000000000000000000000600082015250565b6000612815600c8361216d565b9150612820826127df565b602082019050919050565b6000602082019050818103600083015261284481612808565b9050919050565b60006060820190506128606000830186611c32565b61286d6020830185611c32565b61287a6040830184611e45565b949350505050565b60006040820190506128976000830185611c32565b6128a460208301846120ef565b9392505050565b7f4e4f5f4f5241434c450000000000000000000000000000000000000000000000600082015250565b60006128e160098361216d565b91506128ec826128ab565b602082019050919050565b60006020820190508181036000830152612910816128d4565b9050919050565b600069ffffffffffffffffffff82169050919050565b61293681612917565b811461294157600080fd5b50565b6000815190506129538161292d565b92915050565b6000819050919050565b61296c81612959565b811461297757600080fd5b50565b60008151905061298981612963565b92915050565b60008151905061299e81611c61565b92915050565b600080600080600060a086880312156129c0576129bf611c5c565b5b60006129ce88828901612944565b95505060206129df8882890161297a565b94505060406129f08882890161298f565b9350506060612a018882890161298f565b9250506080612a1288828901612944565b915050929550929590935056fea264697066735822122034f94468ce6aff4f76a57b153649270febb544cc55cee123ad9ea06d9185af4164736f6c63430008180033",
  "linkReferences": {},
  "deployedLinkReferences": {}
}