{"contracts/OracleMock.sol":{"OracleMock":{"abi":[{"inputs":[{"internalType":"int256","name":"_price","type":"int256"}],"stateMutability":"nonpayable","type":"constructor"},{"inputs":[],"name":"latestRoundData","outputs":[{"internalType":"uint80","name":"roundId","type":"uint80"},{"internalType":"int256","name":"answer","type":"int256"},{"internalType":"uint256","name":"startedAt","type":"uint256"},{"internalType":"uint256","name":"_updatedAt","type":"uint256"},{"internalType":"uint80","name":"answeredInRound","type":"uint80"}],"stateMutability":"view","type":"function"},{"inputs":[],"name":"price","outputs":[{"internalType":"int256","name":"","type":"int256"}],"stateMutability":"view","type":"function"},{"inputs":[{"internalType":"int256","name":"_price","type":"int256"}],"name":"setPrice","outputs":[],"stateMutability":"nonpayable","type":"function"},{"inputs":[],"name":"updatedAt","outputs":[{"internalType":"uint256","name":"","type":"uint256"}],"stateMutability":"view","type":"function"}],"evm":{"bytecode":{"linkReferences":{},"object":"608060405234801561001057600080fd5b5060405161033e38038061033e83398181016040528101906100329190610081565b8060008190555042600181905550506100ae565b600080fd5b6000819050919050565b61005e8161004b565b811461006957600080fd5b50565b60008151905061007b81610055565b92915050565b60006020828403121561009757610096610046565b5b60006100a58482850161006c565b91505092915050565b610281806100bd6000396000f3fe608060405234801561001057600080fd5b506004361061004c5760003560e01c80637519ab5014610051578063a035b1fe1461006f578063f7a308061461008d578063feaf968c146100a9575b600080fd5b6100596100cb565b6040516100669190610126565b60405180910390f35b6100776100d1565b604051610084919061015a565b60405180910390f35b6100a760048036038101906100a291906101a6565b6100d7565b005b6100b16100e8565b6040516100c29594939291906101f8565b60405180910390f35b60015481565b60005481565b806000819055504260018190555050565b6000806000806000806000546001546001546000945094509450945094509091929394565b6000819050919050565b6101208161010d565b82525050565b600060208201905061013b6000830184610117565b92915050565b6000819050919050565b61015481610141565b82525050565b600060208201905061016f600083018461014b565b92915050565b600080fd5b61018381610141565b811461018e57600080fd5b50565b6000813590506101a08161017a565b92915050565b6000602082840312156101bc576101bb610175565b5b60006101ca84828501610191565b91505092915050565b600069ffffffffffffffffffff82169050919050565b6101f2816101d3565b82525050565b600060a08201905061020d60008301886101e9565b61021a602083018761014b565b6102276040830186610117565b6102346060830185610117565b61024160808301846101e9565b969550505050505056fea2646970667358221220d959edd7ad8f6b2439306ef619f14a15a7eadd246d101df4babdeddc2d11011464736f6c63430008180033","opcodes":"PUSH1 0x80 PUSH1 0x40 MSTORE CALLVALUE DUP1 ISZERO PUSH2 0x10 JUMPI PUSH1 0x0 DUP1 REVERT JUMPDEST POP PUSH1 0x40 MLOAD PUSH2 0x33E CODESIZE SUB DUP1 PUSH2 0x33E DUP4 CODECOPY DUP2 DUP2 ADD PUSH1 0x40 MSTORE DUP2 ADD SWAP1 PUSH2 0x32 SWAP2 SWAP1 PUSH2 0x81 JUMP JUMPDEST DUP1 PUSH1 0x0 DUP2 SWAP1 SSTORE POP TIMESTAMP PUSH1 0x1 DUP2 SWAP1 SSTORE POP POP PUSH2 0xAE JUMP JUMPDEST PUSH1 0x0 DUP1 REVERT JUMPDEST PUSH1 0x0 DUP2 SWAP1 POP SWAP2 SWAP1 POP JUMP JUMPDEST PUSH2 0x5E DUP2 PUSH2 0x4B JUMP JUMPDEST DUP2 EQ PUSH2 0x69 JUMPI PUSH1 0x0 DUP1 REVERT JUMPDEST POP JUMP JUMPDEST PUSH1 0x0 DUP2 MLOAD SWAP1 POP PUSH2 0x7B DUP2 PUSH2 0x55 JUMP JUMPDEST SWAP3 SWAP2 POP POP JUMP JUMPDEST PUSH1 0x0 PUSH1 0x20 DUP3 DUP5 SUB SLT ISZERO PUSH2 0x97 JUMPI PUSH2 0x96 PUSH2 0x46 JUMP JUMPDEST JUMPDEST PUSH1 0x0 PUSH2 0xA5 DUP5 DUP3 DUP6 ADD PUSH2 0x6C JUMP JUMPDEST SWAP2 POP POP SWAP3 SWAP2 POP POP JUMP JUMPDEST PUSH2 0x281 DUP1 PUSH2 0xBD PUSH1 0x0 CODECOPY PUSH1 0x0 RETURN INVALID PUSH1 0x80 PUSH1 0x40 MSTORE CALLVALUE DUP1 ISZERO PUSH2 0x10 JUMPI PUSH1 0x0 DUP1 REVERT JUMPDEST POP PUSH1 0x4 CALLDATASIZE LT PUSH2 0x4C JUMPI PUSH1 0x0 CALLDATALOAD PUSH1 0xE0 SHR DUP1 PUSH4 0x7519AB50 EQ PUSH2 0x51 JUMPI DUP1 PUSH4 0xA035B1FE EQ PUSH2 0x6F JUMPI DUP1 PUSH4 0xF7A30806 EQ PUSH2 0x8D JUMPI DUP1 PUSH4 0xFEAF968C EQ PUSH2 0xA9 JUMPI JUMPDEST PUSH1 0x0 DUP1 REVERT JUMPDEST PUSH2 0x59 PUSH2 0xCB JUMP JUMPDEST PUSH1 0x40 MLOAD PUSH2 0x66 SWAP2 SWAP1 PUSH2 0x126 JUMP JUMPDEST PUSH1 0x40 MLOAD DUP1 SWAP2 SUB SWAP1 RETURN JUMPDEST PUSH2 0x77 PUSH2 0xD1 JUMP JUMPDEST PUSH1 0x40 MLOAD PUSH2 0x84 SWAP2 SWAP1 PUSH2 0x15A JUMP JUMPDEST PUSH1 0x40 MLOAD DUP1 SWAP2 SUB SWAP1 RETURN JUMPDEST PUSH2 0xA7 PUSH1 0x4 DUP1 CALLDATASIZE SUB DUP2 ADD SWAP1 PUSH2 0xA2 SWAP2 SWAP1 PUSH2 0x1A6 JUMP JUMPDEST PUSH2 0xD7 JUMP JUMPDEST STOP JUMPDEST PUSH2 0xB1 PUSH2 0xE8 JUMP JUMPDEST PUSH1 0x40 MLOAD PUSH2 0xC2 SWAP6 SWAP5 SWAP4 SWAP3 SWAP2 SWAP1 PUSH2 0x1F8 JUMP JUMPDEST PUSH1 0x40 MLOAD DUP1 SWAP2 SUB SWAP1 RETURN JUMPDEST PUSH1 0x1 SLOAD DUP2 JUMP JUMPDEST PUSH1 0x0 SLOAD DUP2 JUMP JUMPDEST DUP1 PUSH1 0x0 DUP2 SWAP1 SSTORE POP TIMESTAMP PUSH1 0x1 DUP2 SWAP1 SSTORE POP POP JUMP JUMPDEST PUSH1 0x0 DUP1 PUSH1 0x0 DUP1 PUSH1 0x0 DUP1 PUSH1 0x0 SLOAD PUSH1 0x1 SLOAD PUSH1 0x1 SLOAD PUSH1 0x0 SWAP5 POP SWAP5 POP SWAP5 POP SWAP5 POP SWAP5 POP SWAP1 SWAP2 SWAP3 SWAP4 SWAP5 JUMP JUMPDEST PUSH1 0x0 DUP2 SWAP1 POP SWAP2 SWAP1 POP JUMP JUMPDEST PUSH2 0x120 DUP2 PUSH2 0x10D JUMP JUMPDEST DUP3 MSTORE POP POP JUMP JUMPDEST PUSH1 0x0 PUSH1 0x20 DUP3 ADD SWAP1 POP PUSH2 0x13B PUSH1 0x0 DUP4 ADD DUP5 PUSH2 0x117 JUMP JUMPDEST SWAP3 SWAP2 POP POP JUMP JUMPDEST PUSH1 0x0 DUP2 SWAP1 POP SWAP2 SWAP1 POP JUMP JUMPDEST PUSH2 0x154 DUP2 PUSH2 0x141 JUMP JUMPDEST DUP3 MSTORE POP POP JUMP JUMPDEST PUSH1 0x0 PUSH1 0x20 DUP3 ADD SWAP1 POP PUSH2 0x16F PUSH1 0x0 DUP4 ADD DUP5 PUSH2 0x14B JUMP JUMPDEST SWAP3 SWAP2 POP POP JUMP JUMPDEST PUSH1 0x0 DUP1 REVERT JUMPDEST PUSH2 0x183 DUP2 PUSH2 0x141 JUMP JUMPDEST DUP2 EQ PUSH2 0x18E JUMPI PUSH1 0x0 DUP1 REVERT JUMPDEST POP JUMP JUMPDEST PUSH1 0x0 DUP2 CALLDATALOAD SWAP1 POP PUSH2 0x1A0 DUP2 PUSH2 0x17A JUMP JUMPDEST SWAP3 SWAP2 POP POP JUMP JUMPDEST PUSH1 0x0 PUSH1 0x20 DUP3 DUP5 SUB SLT ISZERO PUSH2 0x1BC JUMPI PUSH2 0x1BB PUSH2 0x175 JUMP JUMPDEST JUMPDEST PUSH1 0x0 PUSH2 0x1CA DUP5 DUP3 DUP6 ADD PUSH2 0x191 JUMP JUMPDEST SWAP2 POP POP SWAP3 SWAP2 POP POP JUMP JUMPDEST PUSH1 0x0 PUSH10 0xFFFFFFFFFFFFFFFFFFFF DUP3 AND SWAP1 POP SWAP2 SWAP1 POP JUMP JUMPDEST PUSH2 0x1F2 DUP2 PUSH2 0x1D3 JUMP JUMPDEST DUP3 MSTORE POP POP JUMP JUMPDEST PUSH1 0x0 PUSH1 0xA0 DUP3 ADD SWAP1 POP PUSH2 0x20D PUSH1 0x0 DUP4 ADD DUP9 PUSH2 0x1E9 JUMP JUMPDEST PUSH2 0x21A PUSH1 0x20 DUP4 ADD DUP8 PUSH2 0x14B JUMP JUMPDEST PUSH2 0x227 PUSH1 0x40 DUP4 ADD DUP7 PUSH2 0x117 JUMP JUMPDEST PUSH2 0x234 PUSH1 0x60 DUP4 ADD DUP6 PUSH2 0x117 JUMP JUMPDEST PUSH2 0x241 PUSH1 0x80 DUP4 ADD DUP5 PUSH2 0x1E9 JUMP JUMPDEST SWAP7 SWAP6 POP POP POP POP POP POP JUMP INVALID LOG2 PUSH5 0x6970667358 0x22 SLT KECCAK256 0xD9 MSIZE 0xED 0xD7 0xAD DUP16 PUSH12 0x2439306EF619F14A15A7EADD 0x24 PUSH14 0x101DF4BABDEDDC2D11011464736F PUSH13 0x63430008180033000000000000 "},"methodIdentifiers":{"latestRoundData()":"feaf968c","price()":"a035b1fe","setPrice(int256)":"f7a30806","updatedAt()":"7519ab50"}}}}}