{
  "_format": "hh-sol-artifact-1",
  "contractName": "OracleMock",
  "sourceName": "contracts/OracleMock.sol",
  "abi": [
    {
      "inputs": [
        {
          "internalType": "int256",
          "name": "_price",
          "type": "int256"
        }
      ],
      "stateMutability": "nonpayable",
      "type": "constructor"
    },
    {
      "inputs": [],
      "name": "latestRoundData",
      "outputs": [
        {
          "internalType": "uint80",
          "name": "roundId",
          "type": "uint80"
        },
        {
          "internalType": "int256",
          "name": "answer",
          "type": "int256"
        },
        {
          "internalType": "uint256",
          "name": "startedAt",
          "type": "uint256"
        },
        {
          "internalType": "uint256",
          "name": "_updatedAt",
          "type": "uint256"
        },
        {
          "internalType": "uint80",
          "name": "answeredInRound",
          "type": "uint80"
        }
      ],
      "stateMutability": "view",
      "type": "function"
    },
    {
      "inputs": [],
      "name": "price",
      "outputs": [
        {
          "internalType": "int256",
          "name": "",
          "type": "int256"
        }
      ],
      "stateMutability": "view",
      "type": "function"
    },
    {
      "inputs": [
        {
          "internalType": "int256",
          "name": "_price",
          "type": "int256"
        }
      ],
      "name": "setPrice",
      "outputs": [],
      "stateMutability": "nonpayable",
      "type": "function"
    },
    {
      "inputs": [],
      "name": "updatedAt",
      "outputs": [
        {
          "internalType": "uint256",
          "name": "",
          "type": "uint256"
        }
      ],
      "stateMutability": "view",
      "type": "function"
    }
  ],
  "bytecode": "0x608060405234801561001057600080fd5b5060405161033e38038061033e83398181016040528101906100329190610081565b8060008190555042600181905550506100ae565b600080fd5b6000819050919050565b61005e8161004b565b811461006957600080fd5b50565b60008151905061007b81610055565b92915050565b60006020828403121561009757610096610046565b5b60006100a58482850161006c565b91505092915050565b610281806100bd6000396000f3fe608060405234801561001057600080fd5b506004361061004c5760003560e01c80637519ab5014610051578063a035b1fe1461006f578063f7a308061461008d578063feaf968c146100a9575b600080fd5b6100596100cb565b6040516100669190610126565b60405180910390f35b6100776100d1565b604051610084919061015a565b60405180910390f35b6100a760048036038101906100a291906101a6565b6100d7565b005b6100b16100e8565b6040516100c29594939291906101f8565b60405180910390f35b60015481565b60005481565b806000819055504260018190555050565b6000806000806000806000546001546001546000945094509450945094509091929394565b6000819050919050565b6101208161010d565b82525050565b600060208201905061013b6000830184610117565b92915050565b6000819050919050565b61015481610141565b82525050565b600060208201905061016f600083018461014b565b92915050565b600080fd5b61018381610141565b811461018e57600080fd5b50565b6000813590506101a08161017a565b92915050565b6000602082840312156101bc576101bb610175565b5b60006101ca84828501610191565b91505092915050565b600069ffffffffffffffffffff82169050919050565b6101f2816101d3565b82525050565b600060a08201905061020d60008301886101e9565b61021a602083018761014b565b6102276040830186610117565b6102346060830185610117565b61024160808301846101e9565b969550505050505056fea2646970667358221220d959edd7ad8f6b2439306ef619f14a15a7eadd246d101df4babdeddc2d11011464736f6c63430008180033",
  "linkReferences": {},
  "deployedLinkReferences": {}
}